:020000040800F2
:10000000483D0120D9010008EF1500082F15000810
:10001000ED150008F507000819170008000000009A
:10002000000000000000000000000000131600089F
:10003000F707000800000000111600081516000858
:10004000F3010008F3010008F3010008F3010008C0
:10005000F3010008F3010008F3010008F3010008B0
:10006000F3010008F3010008F3010008F3010008A0
:10007000F3010008F3010008F3010008F301000890
:10008000F3010008F3010008F3010008F301000880
:10009000F3010008F3010008F3010008F301000870
:1000A000F3010008F3010008F3010008F301000860
:1000B000F3010008F3010008F3010008F301000850
:1000C000F3010008F3010008F3010008F301000840
:1000D000F3010008F3010008F3010008F301000830
:1000E000F3010008F3010008F3010008F301000820
:1000F000F3010008F3010008F3010008F301000810
:10010000F3010008F3010008F3010008F3010008FF
:10011000F3010008F3010008F3010008F3010008EF
:10012000F3010008F3010008F3010008F3010008DF
:10013000F30100080000000000000000F3010008C7
:10014000F3010008F3010008F3010008F3010008BF
:10015000F3010008F3010008F3010008F3010008AF
:10016000F3010008F3010008F3010008F30100089F
:10017000F3010008F3010008F3010008000000008B
:1001800000000000F3010008000000000000000073
:10019000F30100080000000000000000F301000867
:1001A000000000000000000000000000F301000853
:1001B000F3010008F3010008F3010008F30100084F
:1001C000F3010008DFF80CD000F070FA0048004797
:1001D00039170008483D0120064880470648004777
:1001E000FEE7FEE7FEE7FEE7FEE7FEE7FEE7FEE7E7
:1001F000FEE7FEE7C5160008C50100082DE9F05F1F
:100200000546002092469B46884606468146402485
:100210001BE0284641464746224600F0C8F95346AF
:100220005A46C01A914110D311461846224600F092
:10023000AFF92D1A67EB01084F4622460120002135
:1002400000F0A6F917EB00094E41201EA4F10104AD
:10025000DFDC484631462A464346BDE8F09F2DE99B
:10026000FE4F804681EA0300C00F0C46009021F04B
:10027000004123F00045B8EB0200A94105D24046F9
:10028000214690461C460B46024623F00040104390
:1002900047D0270DC7F30A00C3F30A510290401A52
:1002A000019040286BDAC3F3130040F4801B0098E0
:1002B000924620B10023D2EB030A63EB0B0B0198AB
:1002C0005946C0F14002504600F062F906460D461C
:1002D00050465946019A00F07AF910EB0800614146
:1002E000002487EA115284EAE7731A4340D0009A47
:1002F00062B3019A012A4FEA075215DC001B61EB39
:1003000002014FF0004202EA0752CDE90042001C10
:1003100041F5801132462B4600F07AF903B0BDE872
:10032000F08F40462146F9E7001B61EB0201001CFB
:1003300041F5801300185B412018A2F5001747EB28
:10034000030140EAD570B6196D4111E06D084FEA1E
:10035000360645EAC0754FEA0752001B61EB020101
:10036000001C41F5801149084FEA30000019514145
:1003700032462B4603B0BDE8F04F00F03AB9009882
:10038000012240000023D0EB020263EBE0730098EF
:1003900021464FEAE074B8EB000061EB0401E9E7A5
:1003A00083F000435BE781F0004158E72DE9FE4F01
:1003B00081EA030404F0004421F0004100944FF06E
:1003C000000B23F0004350EA01045ED052EA03041C
:1003D0005BD0C3F30A54C1F30A552C44A4F2F3349E
:1003E0000194A0FB0254C1F3130141F48011C3F343
:1003F000130343F4801301FB024400FB034E840A01
:10040000970A44EA815447EA8357A4FB0768029598
:100410008D0A05FB07854FEA932C04FB0C54270536
:10042000029D4FEA065847EA1637B5EB08056EEB12
:10043000070C870E920E47EA811742EA8312A7FB48
:100440000201B6EB0B0164EB00042B0D43EA0C3305
:100450005E1844EB1C50DA465146E7FB0201C5F337
:1004600013044FEA0B3343EA14534FEA0432019C5E
:1004700043EA0603A4F10C040294009CCDE900B405
:1004800000F0C6F803B0BDE8F08F00200146F9E7A0
:100490002DE9F04D81EA030404F0004B21F0004502
:1004A00014464FF0000A23F0004150EA050220D024
:1004B00054EA01021DD0C5F30A570246C5F31303DF
:1004C000C1F31300C1F30A5640F4801543F48013BE
:1004D000A7EB0608101BD64608F2FD3873EB0500A3
:1004E00002D308F1010801E092185B41B8F1000F56
:1004F00003DA00200146BDE8F08D00204FF48011A2
:10050000064684460EE0171B73EB050705D3121B46
:1005100063EB050306434CEA010C49084FEA30003F
:1005200092185B4150EA0107EDD152EA030012D064
:1005300082EA040083EA0501084305D0101BAB41A1
:1005400006D20122002306E000224FF0004302E021
:100550006FF0010253101AEB06004CEB085110EB40
:100560000A0041EB0B01BDE8F04D00F042B80EB5BA
:10057000C10F80EAE0700844CA07002140F233430B
:100580008DE80E000A460B4600F042F803B000BDAD
:10059000202A04DB203A00FA02F100207047914043
:1005A000C2F1200320FA03F3194390407047202A38
:1005B00004DB203A21FA02F00021704721FA02F30D
:1005C000D040C2F120029140084319467047202ACA
:1005D00006DBCB17203A41FA02F043EAE07306E06B
:1005E00041FA02F3D040C2F120029140084319467B
:1005F000704710B5141E73F1000408DA401C41F175
:10060000000192185B411A4301D120F0010010BD96
:100610002DE9F04D92469B4611B1B1FA81F202E00C
:10062000B0FA80F220329046FFF7B2FF04460F4640
:1006300040EA0A0041EA0B0153465A46084313D0E8
:10064000114653EA010019D0C8F140025046FFF7A5
:10065000AEFF05460E46504659464246FFF798FF04
:10066000084305D0012004E020463946BDE8F08D5E
:100670000020054346EAE0762C4337430A98630599
:10068000E40AA0EB08000022FD0A44EA47540A30BD
:1006900002D500200146E9E7010510196941DDE9AD
:1006A000084500196941BDE8F04DA2E7064C074D29
:1006B00006E0E06840F0010394E807009847103432
:1006C000AC42F6D3FFF782FD601A0008801A0008DA
:1006D000454910B54A6822F440324A604A68436886
:1006E0001A434A6001684A6822F480724A600168CD
:1006F0004A68036942EA03224A6001684A6822F0B4
:1007000040724A6001684A6883681A434A60016817
:100710008A6822F400628A6001688A68C3681A43A2
:100720008A60816A6FF07062D14201688A6822F043
:1007300070628A6001688A680CD0836A1A438A6092
:1007400001688A6822F040528A6001688A68C36A38
:100750001A4301E022F040528A6001688A6822F060
:1007600002028A6001688A68836942EA43028A60F9
:10077000016A002901684A680FD042F400624A60A9
:1007800001684A6822F460424A6001684A68174C6E
:10079000436A04EB43331A4301E022F400624A60E7
:1007A0000168CA6A22F47002CA620168CA6A838B4D
:1007B0000F4C04EB03531A43CA6201688A6822F49F
:1007C00000728A6001688A68036B42EA43228A6089
:1007D00001688A6822F480628A6001688A684069D8
:1007E00042EA8020886010BD0023014000E0FFFF46
:1007F0000000F0FFFEE7704778B50024009490F801
:100800003C20012A19D0012280F83C200A680723E5
:100810000568092A13D9EE680A3A02EB42029340AE
:100820009E43EE600A788B680A3A02EB42029340DC
:100830000268D5682B43D36010E0022078BD2E6992
:1008400002EB420293409E432E610A788B6802EBD2
:1008500042029340026815692B4313614A681F23C3
:10086000072A13D205686E6B521E02EB8202934078
:100870009E436E630B790A885B1E92B203EB83037F
:100880009A4003685D6B2A435A6327E005680D2A86
:1008900012D22E6BD21F02EB820293409E432E6334
:1008A0000B790A88DB1F92B203EB83039A4003683B
:1008B0001D6B2A431A6311E0EE6A0D3A02EB8202C5
:1008C00093409E43EE620B790A880D3B92B203EB94
:1008D00083039A400368DD6A2A43DA62174B05688E
:1008E000154A9D4206D10D68122D03D1556845F475
:1008F0008005556005689D4219D1114D0B68AB42CA
:1009000001D0112B13D1536843F4000353600968DD
:10091000A9420CD10B490C4A0968B1FBF2F101EB79
:100920008101490000E0491E00910029FBD180F8B7
:100930003C40002078BD0000002301400020014021
:10094000120000100000002040420F000068C06C40
:10095000704770B504004FF0000503D0206C0026EE
:1009600010B107E0012070BD666484F83C60204649
:1009700000F01AF8206CC00610D4206C20F48850C7
:1009800040F0020020642046FFF7A2FE6664206C5F
:1009900020F0020040F00100206400E0012584F80E
:1009A0003C60284670BD000000B500680C4987B067
:1009B000884212D10B480021026842F48072026022
:1009C000006800F480700590422000900320CDE97B
:1009D00001016946044800F07DF907B000BD000040
:1009E0000020014044380240000002402DE9F0415F
:1009F000044600680D4681684FF0000749050BD595
:100A00008068C00508D5206C40F02000206484F880
:100A10003C700120BDE8F08100F034FA06460FE09A
:100A2000681C0DD025B100F02DFA801BA84207D913
:100A3000206C40F00400206484F83C700320E9E757
:100A4000206800688007EBD521686FF0120008600D
:100A5000206C40F4007020642068816811F0405FD1
:100A600013D1A16989B9C16A11F4700F02D08068ED
:100A700040050AD4206C20F480702064206CC004EF
:100A800003D4206C40F0010020640020C2E7000085
:100A900018B50021009190F83C20012A07D00122CE
:100AA00080F83C2002689368DB0702D011E0022046
:100AB00018BD936843F001039360204A204B1268ED
:100AC000B2FBF3F202EB420200E0521E0092002A57
:100AD000FBD102689368DB072DD0036C40F2016400
:100AE000A34343F48073036453685B0505D5036C2B
:100AF00023F4005343F480530364036CDB0404D5F4
:100B0000436C23F00603436400E0416480F83C102A
:100B10000C496FF02203136049680068C90602D0CF
:100B20000949884207D1816811F0405F03D181688B
:100B300041F080418160002018BD000000000020CD
:100B400040420F00002301400020014090F83C107B
:100B500001290CD0012180F83C1001688A6822F03C
:100B600001028A6001688968C90702D007E0022093
:100B70007047016C21F4885141F0010101640021AA
:100B800080F83C100846704770B54379012B1AD0A5
:100B9000012646710223037105682C6840F6FE7336
:100BA00093409C43D1E900310B43934023432B6096
:100BB00001680B68C0249440A3430B6006710021B8
:100BC0004171084670BD022070BD70B5040003D0AD
:100BD0002079002510B105E0012070BD6571204627
:100BE00000F008F80220207125610120207100200A
:100BF00070BD000000B500680C4987B0884212D172
:100C00000B480021026842F000520260006800F0C8
:100C100000500590102000900320CDE901016946A5
:100C2000044800F057F807B000BD00000074004011
:100C3000403802400000024018B504680094006883
:100C4000104421B1143000900360002018BD08301A
:100C5000F9E730B54279012A16D001224271022308
:100C6000037103681D6802FA01F425431D60002921
:100C700001680B680AD00C6803F4802304F4601444
:100C8000B3F5802F0FD015E0022030BD0C6803F0C3
:100C9000040304F03804042B0CD1382C0AD14B681F
:100CA00043F0010305E0B4F5601F03D14B6843F046
:100CB00002034B60027100214171084630BD10B53E
:100CC00002681468012303FA01F18C431460037174
:100CD000002010BD2DE9F84FDFF874B100224FF06D
:100CE00001084FF0030A4FF00F090BF1040E00BF8B
:100CF0000B6808FA02F42340A3426ED14D68022D1E
:100D000001D0122D0ED1D50800EB850CDCF8205057
:100D10005607F70E09FA07F6B5430E69BE402E4393
:100D2000CCF82060066855000F790AFA05FC07F038
:100D3000030726EA0C06AF40374307604E68012ED2
:100D400005D0022E03D0112E01D0122E0ED18668AE
:100D5000CF6826EA0C06AF40374387604668A64353
:100D60000C79C4F30014944034434460C4688E6822
:100D700024EA0C04AE402643C6604C68E40060D50B
:100D8000344C256845F480452560246822F003052D
:100D900004F480440094304C2E19D6F80848950786
:100DA0002F0F09FA07F5AC432C4DA84201D10025BD
:100DB0001FE02B4DA84201D101251AE0294DA84280
:100DC00001D1022515E0284DA84201D1032510E0EC
:100DD000264DA84202D104250BE032E0244DA84262
:100DE00001D1052505E0234DA84201D1062500E0EB
:100DF0000725BD402543C6F80858DBF800405D468E
:100E00004E689C43F60300D51C432C60DEF800407E
:100E100075464E689C43B60300D51C432C600C4DB0
:100E200008352C684E689C43F60200D51C432C60A4
:100E3000074D0C352C684E689C43B60200D51C4308
:100E40002C60521C102AFFF453AFBDE8F88F00004D
:100E5000003C0140443802400030014000000240A4
:100E60000004024000080240000C02400010024052
:100E700000140240001802400069084000D0012020
:100E8000704700000148806870470000580000204B
:100E90000248816802781144816070475800002040
:100EA0000B4810B5016841F400710160016841F41C
:100EB00080610160016841F480710160032000F0ED
:100EC00075F8002000F006F800F024F8002010BDAE
:100ED000003C024070B50D4D04464FF47A712878FD
:100EE000B1FBF0F00A490968B1FBF0F000F007FB34
:100EF00048B9102C07D200222146501E00F036F8C7
:100F000000206C6070BD012070BD00005800002002
:100F10000000002010B5032000F048F80022114620
:100F20006FF00B0000F022F8002211466FF00A006B
:100F300000F01CF8002211466FF0090000F016F8CE
:100F400000221146501F00F011F800221146101F18
:100F500000F00CF800221146901E00F007F8002265
:100F6000BDE810401146501EAFF30080F0B40E4BA8
:100F70001B680C46C3F30223C3F10705042D00D9F7
:100F80000425191D072901D2002300E0DB1E0126DC
:100F900006FA05F1491E214099409E40761E1640F2
:100FA0003143F0BC00F024BB0CED00E0064900F03A
:100FB000070208684FF6FF03184040EA0220034A80
:100FC00010430860704700000CED00E00000FA05D7
:100FD0002DE9F0470E46050065D0DFF81481D8F8FA
:100FE0000000F7B200F00F00B04207D288F800709E
:100FF000D8F8000000F00F00B04254D128683D4CF2
:10100000810712D5400703D5206840F4E0502060E6
:101010002878000703D5206840F4604020602068ED
:10102000A96820F0F000084320602878C0072DD080
:10103000304968680839012812D0022813D00328E3
:1010400011D00968890700292DDA216821F00301F0
:1010500001432160FFF716FF814641F2883A0EE016
:1010600009688903EFE709688901ECE7FFF70AFFE0
:10107000A0EB0901514502D90320BDE8F0872068A3
:10108000696800F00C00B0EB810FEFD1D8F80010C8
:10109000404601F00F01B14207D90770006800F027
:1010A0000F00B04201D00120E7E72878400705D5BE
:1010B0002068E96820F4E0500843206028780007A1
:1010C00006D52068296920F4604040EAC10020600C
:1010D00000F01CF82168084AC1F30311515CC840B4
:1010E000064908600020FFF7F5FE0020C5E7000074
:1010F000003C024008380240501A0008000000205E
:10110000014800687047000000000020224810B528
:10111000006810F00C02214815D04110042A11D0AB
:101120001D4C241F082A0FD00C2A0CD122682368DA
:1011300002F03F025B0221D52068C0F38810A0FBBB
:10114000010120E0084610BD2268236802F03F023A
:101150005B0205D52068C0F38810A0FB010104E004
:101160002168C1F38811A1FB00010023FFF746F8B5
:101170002168C1F30141491C49000AE02168C1F31B
:101180008811A1FB00010023FFF738F82168C1F3A3
:101190000271B0FBF1F010BD083802400024F400E9
:1011A0002DE9F84F0546DFF828B30078ABF10407C6
:1011B000C007A7F1040451D0DBF800105846C1F372
:1011C000810101290FD00168C1F38101022902D1F7
:1011D0003968490207D40068C0F38100032809D1A7
:1011E0003868400206D52068800337D56868002833
:1011F00072D033E06868B0F5803F10D0B0F5A02F12
:10120000206810D020F480302060206820F48020F6
:1012100020606868A8B1FFF735FE06460DE020683B
:1012200040F48030F4E740F480202060F7E700BF0E
:10123000FFF728FE801B642878D820688003F7D544
:101240000CE0FFF71FFE064605E000BFFFF71AFEA1
:10125000801B6428F0D820688003F7D42878DFF852
:10126000749280074FF0000A46D5DBF8001058460C
:1012700011F00C0F0FD00168C1F38101022902D1D6
:101280003968490207D50068C0F38100032809D1F5
:101290003868400206D42068800715D5E868012820
:1012A0001AD111E0E868C0B10120C9F80000FFF7C9
:1012B000E9FD064605E000BFFFF7E4FD801B0228BC
:1012C000BAD820688007F7D52068296920F0F8008F
:1012D00040EAC10020600FE0F7E0C9F800A0FFF786
:1012E000D1FD064605E000BFFFF7CCFD801B0228BC
:1012F0001CD820688007F7D42878000727D5DFF8A6
:10130000D0817548696908F16C0881B101210160DB
:10131000FFF7B8FD064604E0FFF7B4FD801B022886
:1013200004D8D8F800008007F6D510E089E0C0F8AE
:1013300000A0FFF7A7FD064605E000BFFFF7A2FDEE
:10134000801B02287DD8D8F800008007F6D42878C2
:10135000400769D55E484FF0000838300068C0008B
:101360000BD45B483830016841F08051016000685F
:101370004FF0010800F080500090584E3068C005D2
:1013800011D4306840F480703060FFF77BFD00902E
:1013900006E000BFFFF776FD0099401A022850D8FA
:1013A0003068C005F6D54A4EA868683601280FD0C7
:1013B0000528306810D020F001003060306820F03F
:1013C00004003060A868B8B1FFF75CFD00900FE042
:1013D000306840F00100F4E740F004003060F7E7C7
:1013E000FFF750FD0099411A41F28830814264D8DC
:1013F00030688007F4D50EE0FFF744FD009007E069
:10140000FFF740FD0099411A41F28830814254D8DB
:1014100030688007F4D4B8F1000F05D02C4838307C
:10142000016821F080510160A869A8B3DBF80010C1
:10143000C1F38101022948D00228C9F860A005D073
:1014400000E03AE0FFF71EFD054639E0FFF71AFD20
:10145000064604E0FFF716FD801B02282DD8206801
:101460008001F7D4F5E907010843E9681C4A4908F7
:1014700002EB0141AA6841EA82110843297C40EA53
:101480000160297D40EA017038600120C9F86000E0
:10149000FFF7F8FC054606E015E000BFFFF7F2FC99
:1014A000401B022809D820688001F7D50BE000BF57
:1014B000FFF7E8FC401B022802D90320BDE8F88FA3
:1014C00020688001F4D40020F8E70120F6E700004E
:1014D0000838024000004742800E4742007000403A
:1014E0000000FFFF4FF0E0210428086903D020F03E
:1014F00004000861704740F00400FAE7704710B537
:10150000401EB0F1807F01D3012010BD4FF0E024D8
:1015100060610F21601700F06BF80020A0610720C8
:101520002061002010BD10B5FFF7E8FF10BDFEE7F9
:101530007FB516481449164A016000214160816058
:1015400081610162C0E90A2102250124C561C0E967
:10155000031444610163FFF7FCF900B1FEE70720C3
:101560000094CDE9014069460848FFF745F900B10C
:10157000FEE70620CDE9000569460448FFF73CF97F
:10158000002800D0FEE77FBD002001406800002059
:101590000100000F134800B5026887B0002142F037
:1015A00080020260026802F080020592026842F046
:1015B00001020260026802F001020592026842F034
:1015C00010020260006800F0100005904FF4005017
:1015D000CDE900010120029069460348FFF77AFB3C
:1015E00007B000BD3038024000100240FEE77047EF
:1015F0000907090E002806DA00F00F0000F1E020CC
:1016000080F8141D704700F1E02080F80014704746
:101610007047704710B5FFF73BFCBDE81040FFF77F
:1016200082BF0000254810B5016894B041F0805198
:101630000160006800F0805012902148016821F498
:10164000404141F4804101600068022400F44040C0
:10165000129001200090000401908001CDE9064025
:1016600004200890B420CDE909040B9468460C943A
:10167000FFF796FD00B1FEE70F20CDE90D048020B5
:101680000F904FF4A0501090119002210DA8FFF779
:101690009FFC00B1FEE7FFF733FD4FF47A71B0FB1A
:1016A000F1F0FFF72CFF0420FFF71CFF002211468A
:1016B000501EFFF75BFC14B010BD00004038024024
:1016C000007000401048016841F4700101600F484B
:1016D000016841F0010101600C4A002108321160EB
:1016E00002680B4B1A400260031D0A4A1A60026826
:1016F00022F48022026005480C300160024958063D
:10170000803908607047000088ED00E00038024032
:10171000FFFFF6FE10300024FEE702E008C8121FAB
:1017200008C1002AFAD170477047002001E001C1CA
:10173000121F002AFBD170472DED108B82B0FFF7EE
:10174000AFFBFFF76FFFFFF725FFAC49AA48086022
:101750000846FFF73AFA00B1FEE700260096324647
:101760006946A6480196FFF70FFA00B1FEE7FFF7BA
:10177000DFFEA24FA24C002540F2C950183742F2BA
:1017800010789FEDA0AB9FEDA1EB9FEDA2BB9FED6D
:10179000A38B206099484838FFF77AF997480121D0
:1017A0004838FFF723F995484838FFF7CFF86060CD
:1017B000FEF7DDFE53EC1A2BFEF7F8FD53EC1E2B63
:1017C000FEF7F4FD53EC1B2BFEF7F0FD53EC182B4A
:1017D000FEF7ECFD41EC100B07EBC50053EC102BB2
:1017E00080ED000B94ED0C0B51EC100BFEF737FD68
:1017F000C4E90C01814801214838FFF7F7F87F4818
:101800004838FFF7A3F86D1CA0604545C2DB9FED8B
:10181000850B53EC102B94ED0C0B51EC100BFEF7D9
:1018200037FEC4E90E01C4E9100174484838FFF7D7
:101830008DF9DFF8F8814FF4005770484838FFF70A
:1018400027F96E4801214838FFF7D0F86B4848382F
:10185000FFF77CF86060FEF78AFEB0EE4A9AF0EE81
:101860006A9A53EC192BFEF7A1FDB0EE4E8AF0EE0A
:101870006E8A53EC182BFEF799FD53EC1B2BFEF7E9
:1018800095FD9FED66DB53EC1D2BFEF78FFDC4E944
:101890000E015A4801214838FFF7A8F85748483840
:1018A000FFF754F8A060FEF762FE53EC192BFEF729
:1018B0007DFD53EC182BFEF779FDC4E908014F4874
:1018C0004838FFF743F939464046FFF7D5FA002874
:1018D000B3D1FFF7D7FAB0EE4BCAF0EE6BCA4FF4B4
:1018E000FA65E06072E045484838FFF7D1F8606972
:1018F00050B100214148FFF7ACF9002211463F48A2
:101900002368FFF799F966613C484838FFF7C0F84B
:101910003A4801214838FFF769F838484838FFF756
:1019200015F86060FEF723FE53EC192BFEF73EFD21
:1019300053EC182BFEF73AFD53EC1C2BFEF736FD4B
:1019400053EC1D2BFEF732FDC4E90E01C4E906017C
:101950002A4801214838FFF749F828484838FEF757
:10196000F5FFA060FEF703FE53EC192BFEF71EFDFA
:1019700053EC182BFEF71AFD41EC100B9FED2C1BBE
:1019800084ED080B53EC112BFEF782FD9FED2A1B13
:1019900053EC112BFEF70AFD41EC1F0B84ED0AFB03
:1019A00094ED0E0B53EC102B94ED100B51EC100B2F
:1019B000FEF7F6FC53EC1F2BFEF76AFD9FED201B94
:1019C00053EC112BFEF7F2FCC4E91201FFF75AFAAF
:1019D000E168401AA84286D30120C4E904609FED63
:1019E0001A0B002184ED120B0448FFF768F9034835
:1019F0004838FFF7ABF820E700740040B000002043
:101A000008000020000000000000303FF0A7C64B97
:101A100037890A4000000000000008400000000074
:101A20000000E03F000000000088C34000100240BA
:101A3000333333333333F33F0000000000002040E2
:101A40000000000000408F40000000000000000087
:101A5000000000000000000001020304060708095E
:101A6000801A000800000020640000001A17000817
:101A7000E41A000864000020E43C01002A17000872
:101A80000024F4000000000000000000000000003E
:101A90000000000000000000000000000100000045
:101AA0000000000000000000000000000000000036
:101AB0000000000000000000000000000000000026
:101AC0000000000000000000000000000000000016
:101AD00000000000000000000100000010000000F5
:041AE0000000000002
:04000005080001C529
:00000001FF
