:020000040800F2
:1000000050060020D90100086B2100088B1E000853
:1000100069210008090400088F240008000000007E
:100020000000000000000000000000008F21000818
:1000300019040008000000008D210008912100082B
:10004000F3010008F3010008F3010008F3010008C0
:10005000F3010008F3010008F3010008F3010008B0
:10006000F3010008F3010008F3010008F3010008A0
:10007000F3010008F3010008F3010008F301000890
:10008000F3010008F3010008F3010008F301000880
:100090000D040008F3010008F3010008F301000853
:1000A000F3010008F3010008F3010008F301000860
:1000B000712200087D220008F3010008F301000806
:1000C000F3010008F3010008F3010008F301000840
:1000D000F3010008F3010008F3010008F301000830
:1000E000F3010008F3010008F3010008F301000820
:1000F000F3010008F3010008F3010008F301000810
:10010000F3010008F3010008F3010008F3010008FF
:10011000F3010008F301000889220008F301000838
:10012000F3010008F3010008F3010008F3010008DF
:10013000F30100080000000000000000F3010008C7
:10014000F3010008F3010008F3010008F3010008BF
:10015000F3010008F3010008F3010008F3010008AF
:10016000F3010008F3010008F3010008F30100089F
:10017000F3010008F3010008F3010008000000008B
:1001800000000000F3010008000000000000000073
:10019000F30100080000000000000000F301000867
:1001A000000000000000000000000000F301000853
:1001B000F3010008F3010008F3010008F30100084F
:1001C000F3010008DFF80CD000F07AF8004800478F
:1001D000B124000850060020064880470648004722
:1001E000FEE7FEE7FEE7FEE7FEE7FEE7FEE7FEE7E7
:1001F000FEE7FEE71D220008C50100082DE9F05FBB
:100200000546002092469B46884606468146402485
:100210001BE0284641464746224600F041F8534637
:100220005A46C01A914110D311461846224600F092
:1002300028F82D1A67EB01084F46224601200021BD
:1002400000F01FF817EB00094E41201EA4F1010435
:10025000DFDC484631462A464346BDE8F09FD2B22D
:1002600001E000F8012B491EFBD270470022F6E79F
:1002700010B513460A4604461946FFF7F0FF20461C
:1002800010BD202A04DB203A00FA02F1002070475A
:100290009140C2F1200320FA03F3194390407047C4
:1002A000202A04DB203A21FA02F00021704721FACB
:1002B00002F3D040C2F12002914008431946704732
:1002C000064C074D06E0E06840F0010394E80700A3
:1002D00098471034AC42F6D3FFF778FF5C2800084B
:1002E0007C280008454910B54A6822F440324A602B
:1002F0004A6843681A434A6001684A6822F4807277
:100300004A6001684A68036942EA03224A60016858
:100310004A6822F040724A6001684A6883681A435A
:100320004A6001688A6822F400628A6001688A680B
:10033000C3681A438A60816A6FF07062D1420168B3
:100340008A6822F070628A6001688A680CD0836AC9
:100350001A438A6001688A6822F040528A60016804
:100360008A68C36A1A4301E022F040528A60016839
:100370008A6822F002028A6001688A68836942EA18
:1003800043028A60016A002901684A680FD042F47A
:1003900000624A6001684A6822F460424A6001686B
:1003A0004A68174C436A04EB43331A4301E022F4D2
:1003B00000624A600168CA6A22F47002CA62016877
:1003C000CA6A838B0F4C04EB03531A43CA62016859
:1003D0008A6822F400728A6001688A68036B42EAC4
:1003E00043228A6001688A6822F480628A60016818
:1003F0008A68406942EA8020886010BD002301407D
:1004000000E0FFFF0000F0FFFEE70000014800F001
:1004100097BB0000DC0000207047000078B5002486
:10042000009490F83C20012A19D0012280F83C2049
:100430000A6807230568092A13D9EE680A3A02EB0D
:10044000420293409E43EE600A788B680A3A02EBC0
:10045000420293400268D5682B43D36010E002202B
:1004600078BD2E6902EB420293409E432E610A78CA
:100470008B6802EB42029340026815692B431361BB
:100480004A681F23072A13D205686E6B521E02EBBF
:10049000820293409E436E630B790A885B1E92B280
:1004A00003EB83039A4003685D6B2A435A6327E09A
:1004B00005680D2A12D22E6BD21F02EB82029340E6
:1004C0009E432E630B790A88DB1F92B203EB8303F2
:1004D0009A4003681D6B2A431A6311E0EE6A0D3AD5
:1004E00002EB820293409E43EE620B790A880D3B39
:1004F00092B203EB83039A400368DD6A2A43DA620F
:10050000174B0568154A9D4206D10D68122D03D17F
:10051000556845F48005556005689D4219D1114D17
:100520000B68AB4201D0112B13D1536843F4000385
:1005300053600968A9420CD10B490C4A0968B1FB08
:10054000F2F101EB8101490000E0491E0091002910
:10055000FBD180F83C40002078BD00000023014022
:1005600000200140120000104800002040420F000F
:100570000068C06C704770B504004FF0000503D0F0
:10058000206C002610B107E0012070BD666484F87D
:100590003C60204600F01AF8206CC00610D4206C95
:1005A00020F4885040F0020020642046FFF79AFEB5
:1005B0006664206C20F0020040F00100206400E03E
:1005C000012584F83C60284670BD000070B586B0F7
:1005D000044614216846FFF749FE2F492D4E236833
:1005E00000242D4A143903252C48B34215D1136831
:1005F00043F480731360126802F4807205920A68F3
:1006000042F001020A600968029401F001010591BB
:10061000F121CDE90015694637E0214EB34236D1CC
:10062000136843F400731360126802F400720592B9
:100630000A6842F001020A600A6802F001020592AB
:100640000A6842F004020A600A6802F00402059295
:100650000A6842F002020A600968029401F002018D
:1006600005910E21CDE90015694600F091FC10209E
:10067000CDE90005694602940A4800F089FC022091
:10068000CDE9000569460294074800F081FC06B0F8
:1006900070BD0000002001404438024000000240CC
:1006A0000021014000080240000402402DE9F04111
:1006B000044600680D4681684FF0000749050BD5D8
:1006C0008068C00508D5206C40F02000206484F8C4
:1006D0003C700120BDE8F08100F036FD06460FE0D9
:1006E000681C0DD025B100F02FFD801BA84207D952
:1006F000206C40F00400206484F83C700320E9E79B
:10070000206800688007EBD521686FF01200086050
:10071000206C40F4007020642068816811F0405F14
:1007200013D1A16989B9C16A11F4700F02D0806830
:1007300040050AD4206C20F480702064206CC00432
:1007400003D4206C40F0010020640020C2E70000C8
:1007500018B50021009190F83C20012A07D0012211
:1007600080F83C2002689368DB0702D011E0022089
:1007700018BD936843F001039360204A204B126830
:10078000B2FBF3F202EB420200E0521E0092002A9A
:10079000FBD102689368DB072DD0036C40F2016443
:1007A000A34343F48073036453685B0505D5036C6E
:1007B00023F4005343F480530364036CDB0404D537
:1007C000436C23F00603436400E0416480F83C106E
:1007D0000C496FF02203136049680068C90602D013
:1007E0000949884207D1816811F0405F03D18168CF
:1007F00041F080418160002018BD000048000020C9
:1008000040420F00002301400020014090F83C10BE
:1008100001290CD0012180F83C1001688A6822F07F
:1008200001028A6001688968C90702D007E00220D6
:100830007047016C21F4885141F0010101640021ED
:1008400080F83C100846704790F82020012A09D013
:1008500090F82020022A05D0416A41F480214162AB
:1008600001207047006842690A43426100207047D6
:10087000F0B590F82040012C07D090F82040022CD1
:1008800003D0416A41F4802153E00468A5686D01FA
:1008900005D4A5682D0102D4A568ED0046D5A4684D
:1008A0000125C4F30164A5401D608D684FF4C07339
:1008B0009DB1CE6835434E6845EAC605066803EB30
:1008C0000417F5514FF4C275076805EB04150E695E
:1008D0007E51097D012905D009E00E88CD6845EAE1
:1008E0004655EBE701684E5946F480764E51117932
:1008F000D2F805504FF4C67641EA0521056806EBAB
:100900000416A9511178D2F801204FF4C47541EAB8
:100910000221026805EB04155151006803EB041134
:10092000425842F0010242500020F0BD416A41F4B9
:10093000001141620120F0BD10B590F82020012A7D
:1009400009D090F82020022A05D0416A41F4802184
:100950004162012010BD3A48D0F8002242F0010265
:10096000C0F80022D0F8002222F47C52C0F8002205
:10097000D0F800224B6A42EA0322C0F800220B7D25
:1009800001229A40D0F81C329343C0F81C32CB6944
:10099000B3B9D0F80C329343C0F80C328C894B6851
:1009A00064F31F434C6900EBC404C4F840320C8963
:1009B0000B6864F31F434C6900EBC404C4F8443271
:1009C000CB69012B16D1D0F80C321343C0F80C328E
:1009D0000C884B6864F31F434C6900EBC404C4F8F3
:1009E00040320C89CB6864F31F434C6900EBC404AC
:1009F000C4F844328B69002BD0F804320ED0134374
:100A0000C0F804320B69002BD0F8143208D013431D
:100A1000C0F81432096A012904D008E09343EFE7D3
:100A20009343F5E7D0F81C121143C0F81C12D0F81C
:100A3000001221F00101C0F80012002010BD0000DA
:100A400000640040704730B590F82040012C07D07A
:100A500090F82040022C03D0416A41F4802109E043
:100A600011B1012909D00CE00468E46807E0416A8B
:100A700041F400114162012030BD04682469A407DB
:100A8000F5D04FF4D874056804EB01142D5915F016
:100A90000405956005682D5942D0ED08556005683C
:100AA0002C59C4F34004D4604FF4DA74056804EBA5
:100AB00001142D5905F00F05156105682D59C5F371
:100AC0000725956105682C59240C54614FF4DC729C
:100AD000046802EB0112A4581C700468A458240A8C
:100AE0005C700468A458240C9C700468A258120E10
:100AF000DA704FF4DE72046802EB0112A4581C7124
:100B00000468A458240A5C710468A458240C9C71DD
:100B10000468A258120EDA7129B1012909D00DE03A
:100B20006D0D1560BBE70068C16841F02001C16030
:100B300004E00068016941F020010161002030BD3E
:100B40002DE9F05F0546006800244669D0F804905E
:100B50008768D0F80CB0D0F810A0D0F81880F10752
:100B600048D0F90714D001218160B80703D5284681
:100B700000F007FA0CE0780702D54FF4006407E0B4
:100B8000380702D54FF4805402E0284600F0F8F907
:100B9000F80516D529684FF480708860B80503D52C
:100BA000284600F0F0F90CE0780502D544F4005432
:100BB00007E0380502D544F4804402E0284600F0FE
:100BC000E1F9F80316D529684FF480308860B8033E
:100BD00003D5284600F0D9F90CE0780302D544F497
:100BE000004407E0380302D544F4803402E028468C
:100BF00000F0CAF9300707D55FEACB6004D5296851
:100C0000102044F40074C86070074FF0080707D53F
:100C10005FEA0B7004D52868C760284600F06AF9BF
:100C2000B00706D52868C068800702D0284600F0C3
:100C300063F9700607D55FEACA6004D529681020F9
:100C400044F480640861B00607D55FEA0A7004D5F1
:100C500028680761284600F063F9F00606D5286881
:100C60000069800702D0284600F05BF9B00308D580
:100C70005FEAC96005D5296810204860284600F061
:100C800051F9F00307D55FEA097004D52868476079
:100C9000284600F07BF9300446D55FEA497040D51C
:100CA000F00504D55FEAC87001D044F00104B00536
:100CB00004D55FEA887001D544F00204700504D5BC
:100CC0005FEA487001D544F00404300529D518F0D6
:100CD000700F26D008F07000402815D006DC1028D0
:100CE00009D020280AD0302816D10AE050280ED08A
:100CF000602811D10EE044F008040DE044F0100427
:100D00000AE044F0200407E044F0400404E044F02A
:100D1000800401E044F480742868816921F0700146
:100D20008161296804204860002C05D0686A20434E
:100D300068622846FFF786FEBDE8F09F70B50400A4
:100D400003D094F8200010B104E0012070BD2046CB
:100D500000F092F82068016821F00201016000F0C3
:100D6000F3F90546052604E000F0EEF9401B0A28D9
:100D700011D8206840688007F6D42068016841F0E7
:100D80000101016000F0E0F905460BE000F0DCF93C
:100D9000401B0A2806D9606A40F40030606284F87B
:100DA0002060D2E720684068C007EFD0207E01288D
:100DB000206801683DD021F080010160607E01283B
:100DC0002068016838D021F040010160A07E012830
:100DD0002068016833D021F020010160E07E012805
:100DE000206801682ED041F010010160207F0128A9
:100DF0002068016829D021F008010160607F012886
:100E00002068016824D021F004010160D4E90201C6
:100E10000843D4E90412114308436168491E08439A
:100E20002168C86100206062012084F82000002051
:100E300070BD41F08001C0E741F04001C5E741F0DD
:100E40002001CAE721F01001CFE741F00801D4E703
:100E500041F00401D9E790F820300022012B03D0A3
:100E600090F82030022B05D1006889068068814304
:100E700000D001221046704710B586B004461421F8
:100E80006846FFF7F3F918492068884229D11748C6
:100E90000021026842F000720260006800F00070F9
:100EA000059012481038026842F0010202600068A2
:100EB00000F0010005904FF4C05000900220CDE9F1
:100EC000010103200390092004906946084800F0BE
:100ED0005FF800221146142000F0A2F9142000F05F
:100EE00093F906B010BD0000006400404038024095
:100EF00000000240704700000649884209D10649B7
:100F0000012001F12C038870044A00210148FFF7F9
:100F10009ABD7047DC00002000000020F401002092
:100F2000704770477047000070B5044690F8200085
:100F3000012804D0606A40F40020606218E00220BA
:100F400084F820002068016821F00101016000F0B0
:100F5000FBF805460EE000BF00F0F6F8401B0A283B
:100F600008D9606A40F400306062052084F82000EF
:100F7000012070BD20684068C007EDD1606270BD7F
:100F80007047704770477047704770477047000060
:100F90002DE9F84FDFF874B100224FF001084FF04F
:100FA000030A4FF00F090BF1040E00BF0B6808FA9B
:100FB00002F42340A3426ED14D68022D01D0122DC0
:100FC0000ED1D50800EB850CDCF820505607F70E43
:100FD00009FA07F6B5430E69BE402E43CCF82060EF
:100FE000066855000F790AFA05FC07F0030726EAA0
:100FF0000C06AF40374307604E68012E05D0022E25
:1010000003D0112E01D0122E0ED18668CF6826EAA9
:101010000C06AF40374387604668A6430C79C4F39B
:101020000014944034434460C4688E6824EA0C047D
:10103000AE402643C6604C68E40060D5344C256859
:1010400045F480452560246822F0030504F48044BB
:101050000094304C2E19D6F8084895072F0F09FA3E
:1010600007F5AC432C4DA84201D100251FE02B4DC4
:10107000A84201D101251AE0294DA84201D102253B
:1010800015E0284DA84201D1032510E0264DA842C5
:1010900002D104250BE032E0244DA84201D1052500
:1010A00005E0234DA84201D1062500E00725BD40FB
:1010B0002543C6F80858DBF800405D464E689C435F
:1010C000F60300D51C432C60DEF8004075464E68E0
:1010D0009C43B60300D51C432C600C4D08352C688E
:1010E0004E689C43F60200D51C432C60074D0C351E
:1010F0002C684E689C43B60200D51C432C60521CE1
:10110000102AFFF453AFBDE8F88F0000003C014007
:101110004438024000300140000002400004024018
:1011200000080240000C024000100240001402407F
:10113000001802400069084000D0012070470AB141
:10114000816170470904FBE701488068704700002F
:101150003C00002002488168027811448160704799
:101160003C0000200B4810B5016841F4007101609B
:10117000016841F480610160016841F4807101609F
:10118000032000F06DF8002000F006F800F024F8CD
:10119000002010BD003C024070B50D4D04464FF4D8
:1011A0007A712878B1FBF0F00A490968B1FBF0F0D8
:1011B00000F024FB48B9102C07D200222146501E13
:1011C00000F02EF800206C6070BD012070BD0000A2
:1011D0003C000020480000200A4808B5016841F49E
:1011E00080410160006800F4804000900548001FC5
:1011F000016841F080510160006800F0805000906B
:1012000008BD00004438024000F01F020121914057
:101210004009800000F1E020C0F800117047000094
:10122000F0B40E4B1B680C46C3F30223C3F1070551
:10123000042D00D90425191D072901D2002300E03F
:10124000DB1E012606FA05F1491E214099409E4009
:10125000761E16403143F0BC00F088BF0CED00E074
:10126000064900F0070208684FF6FF03184040EAFD
:101270000220034A10430860704700000CED00E0B4
:101280000000FA052DE9F8431748016841F0805144
:1012900001600068154F00F08050012600903E6408
:1012A000FFF752FF05464FF47A78114C05E000BF76
:1012B000FFF74AFF401B40450DD86068C003F7D5D3
:1012C0007E64FFF741FF0546464607E0FFF73CFF17
:1012D000401BB04202D90320BDE8F8836068800358
:1012E000F4D50020F8E700004038024000000E422C
:1012F000007000402DE9F0470E46050065D0DFF88C
:101300001481D8F80000F7B200F00F00B04207D205
:1013100088F80070D8F8000000F00F00B04254D1F7
:1013200028683D4C810712D5400703D5206840F45A
:10133000E05020602878000703D5206840F4604022
:1013400020602068A96820F0F00008432060287819
:10135000C0072DD0304968680839012812D002280A
:1013600013D0032811D00968890700292DDA2168D4
:1013700021F0030101432160FFF7E6FE814641F2BF
:10138000883A0EE009688903EFE709688901ECE70C
:10139000FFF7DAFEA0EB0901514502D90320BDE8B1
:1013A000F0872068696800F00C00B0EB810FEFD186
:1013B000D8F80010404601F00F01B14207D907707C
:1013C000006800F00F00B04201D00120E7E7287864
:1013D000400705D52068E96820F4E0500843206004
:1013E0002878000706D52068296920F4604040EA83
:1013F000C100206000F016F82168084AC1F303110B
:10140000515CC840064908600020FFF7C5FE002077
:10141000C5E70000003C0240083802404C280008A4
:1014200048000020224810B5006810F00C02214846
:1014300015D04110042A11D01D4C241F082A0FD0AA
:101440000C2A0CD12268236802F03F025B0221D5EE
:101450002068C0F38810A0FB010120E0084610BD01
:101460002268236802F03F025B0205D52068C0F3C2
:101470008810A0FB010104E02168C1F38811A1FBE1
:1014800000010023FEF7BAFE2168C1F30141491CA7
:1014900049000AE02168C1F38811A1FB0001002383
:1014A000FEF7ACFE2168C1F30271B0FBF1F010BD94
:1014B000083802400024F4002DE9F84F0546DFF813
:1014C00028B30078ABF10407C007A7F1040451D09A
:1014D000DBF800105846C1F3810101290FD00168E3
:1014E000C1F38101022902D13968490207D4006899
:1014F000C0F38100032809D13868400206D520686E
:10150000800337D56868002872D033E06868B0F58A
:10151000803F10D0B0F5A02F206810D020F480308C
:101520002060206820F4802020606868A8B1FFF760
:101530000BFE06460DE0206840F48030F4E740F4EE
:1015400080202060F7E700BFFFF7FEFD801B6428C6
:1015500078D820688003F7D50CE0FFF7F5FD064644
:1015600005E000BFFFF7F0FD801B6428F0D820687D
:101570008003F7D42878DFF8749280074FF0000AD0
:1015800046D5DBF80010584611F00C0F0FD001685B
:10159000C1F38101022902D13968490207D50068E7
:1015A000C0F38100032809D13868400206D42068BE
:1015B000800715D5E86801281AD111E0E868C0B1A4
:1015C0000120C9F80000FFF7BFFD064605E000BF97
:1015D000FFF7BAFD801B0228BAD820688007F7D52C
:1015E0002068296920F0F80040EAC10020600FE07F
:1015F000F7E0C9F800A0FFF7A7FD064605E000BF29
:10160000FFF7A2FD801B02281CD820688007F7D4B2
:101610002878000727D5DFF8D0817548696908F177
:101620006C0881B101210160FFF78EFD064604E0E0
:10163000FFF78AFD801B022804D8D8F80000800735
:10164000F6D510E089E0C0F800A0FFF77DFD064662
:1016500005E000BFFFF778FD801B02287DD8D8F891
:1016600000008007F6D42878400769D55E484FF01F
:10167000000838300068C0000BD45B48383001687F
:1016800041F08051016000684FF0010800F0805087
:101690000090584E3068C00511D4306840F4807016
:1016A0003060FFF751FD009006E000BFFFF74CFDF2
:1016B0000099401A022850D83068C005F6D54A4E25
:1016C000A868683601280FD00528306810D020F0AF
:1016D00001003060306820F004003060A868B8B1C4
:1016E000FFF732FD00900FE0306840F00100F4E7B2
:1016F00040F004003060F7E7FFF726FD0099411A3B
:1017000041F28830814264D830688007F4D50EE019
:10171000FFF71AFD009007E0FFF716FD0099411A48
:1017200041F28830814254D830688007F4D4B8F14F
:10173000000F05D02C483830016821F0805101603D
:10174000A869A8B3DBF80010C1F38101022948D0D1
:101750000228C9F860A005D000E03AE0FFF7F4FCE9
:10176000054639E0FFF7F0FC064604E0FFF7ECFC25
:10177000801B02282DD820688001F7D4F5E90701E5
:101780000843E9681C4A490802EB0141AA6841EA9A
:1017900082110843297C40EA0160297D40EA0170FA
:1017A00038600120C9F86000FFF7CEFC054606E06E
:1017B00015E000BFFFF7C8FC401B022809D82068CD
:1017C0008001F7D50BE000BFFFF7BEFC401B0228ED
:1017D00002D90320BDE8F88F20688001F4D40020EE
:1017E000F8E70120F6E70000083802400000474211
:1017F000800E4742007000400000FFFF10B5401E01
:10180000B0F1807F01D3012010BD4FF0E024606172
:101810000F21601700F0AAFC0020A06107202061C2
:10182000002010BD7047704730B590F83820012A6D
:1018300020D0012280F83820022380F83930036854
:101840005C6824F070045C6003685C680D682C437D
:101850005C6003689C6824F080049C6003689C685A
:1018600049680C439C6080F83920002180F83810CA
:10187000084630BD022030BD10B5040003D094F8F6
:10188000390010B107E0012010BD002084F83800B5
:10189000204600F00DF8022084F83900211D206850
:1018A00000F0F8FC012084F83900002010BD000091
:1018B00010B586B0044614216846FEF7D7FC2268AE
:1018C00000212648B2F1804F14D0254B9A4220D1F6
:1018D000016841F0100101600068002200F0100072
:1018E000059011463620FFF79BFC3620FFF78CFC55
:1018F00006B010BD016841F00101016000680022DE
:1019000000F00100059011461C20FFF789FC1C2007
:10191000ECE714488242EBD11048001D026842F403
:1019200080220260006800F4802005900B48103887
:10193000026842F002020260006800F002000590B6
:101940004FF4007000900220CDE901010320CDE9A1
:10195000031069460448FFF71BFBC9E74038024003
:101960000010004000480140000402400168CA68BD
:1019700042F00102CA600068016841F001010160A3
:101980000020704770B5044690F83800012817D041
:10199000012584F83850022084F8390020688268D4
:1019A00022F0770222F47F4282600868502837D004
:1019B0000DDC202859D005DC88B3102841D151E036
:1019C000022070BD302853D040283AD13FE0602833
:1019D0002ED070280BD0B0F5805F03D0B0F5005F3B
:1019E0002FD110E02068816821F0070115E0CB6855
:1019F000D1E90121206800F0B8FC2168886840F036
:101A0000770088601DE0CB68D1E90121206800F0F3
:101A1000ACFC2068816841F48041816011E01EE0E7
:101A2000CA684968206800F0B2FC5021206806E0CE
:101A3000CA684968206800F0FDFC6021206800F059
:101A40009EFC84F83950002084F8380070BDCA68C4
:101A50004968206800F09BFC40212068EFE70021E6
:101A60002068ECE710212068E9E720212068E6E7FC
:101A700030212068E3E7000000680549884206D16C
:101A800004480068C16B044AD18300214162704759
:101A90000004004040010020000000202DE9F0413A
:101AA000044690F838000D4601283DD0012684F800
:101AB0003860022084F83900AAB3042A46D020688E
:101AC000082A55D0D5E90027E968036A23F4805332
:101AD0000362D0F81CC0036A2CF4407C4CEA072750
:101AE0004FF6FF7C27F470470CEA013139434FF47D
:101AF000204723F4204307EA02321A43C1610262FD
:101B00002068C16921F44061C1612068C169AA6887
:101B100041EA0221C0F81C1084F83960002084F8E2
:101B20003800BDE8F08101E00220FAE7D5E90012B3
:101B3000EB68206800F03CFC2068816921F00C0112
:101B4000816120688169AA6811430FE0D5E900121C
:101B5000EB68206800F080FC2068816921F4406116
:101B6000816120688169AA6841EA02218161D3E725
:101B7000D5E9002C2F7B016A21F480710162C169D3
:101B8000036A21F0030141EA0C0121F0F00C39074E
:101B90004FF420674CEA116123F4206307EA022224
:101BA0001A43C16102622068C16921F00C01C16160
:101BB0002068C169AA681143ACE710B5040003D0DE
:101BC00094F8390010B107E0012010BD002084F81E
:101BD0003800204600F00CF8022084F83900211D5E
:101BE000206800F057FB012084F83900002010BD68
:101BF00010B586B0044614216846FEF737FB174936
:101C00002068884227D116480021026842F002026B
:101C10000260006800F00200059011481038026868
:101C200042F004020260006800F0040005904FF4E6
:101C3000807000900220CDE90101CDE903106946D2
:101C40000848FFF7A5F9002211461D20FFF7E8FA22
:101C50001D20FFF7D9FA06B010BD000000040040B7
:101C6000403802400008024010B50268044631B115
:101C7000042908D0082915D00C2908D116E0D0680D
:101C800040F0020002E0D06840F00400D060012281
:101C9000206800F05FFB2068016841F001010160ED
:101CA000002010BDD06840F00800EFE7D06840F099
:101CB0001000EBE770B50446006801694FF00005BD
:101CC000C943890715D4C168C943890711D4E91EDE
:101CD000016101202076206880698007204602D0BB
:101CE000FFF7CAFE04E000F098F8204600F096F8EE
:101CF000257620680169C943490717D4C168C943DB
:101D0000490713D46FF00401016102202076206896
:101D1000806910F4407F204602D0FFF7ADFE04E05A
:101D200000F07BF8204600F079F8257620680169FC
:101D3000C943090716D4C168C943090712D46FF013
:101D400008010161042020762068C06980072046D0
:101D500002D0FFF791FE04E000F05FF8204600F0AB
:101D60005DF8257620680169C943C90617D4C168A2
:101D7000C943C90613D46FF0100101610820207611
:101D80002068C06910F4407F204602D0FFF774FE3F
:101D900004E000F042F8204600F040F82576206884
:101DA0000169C943C90708D1C168C943C90704D13A
:101DB000891E0161204600F04FF820680169C9437F
:101DC000090609D4C168C943090605D46FF080012A
:101DD00001612046FFF726FD20680169C9434906D5
:101DE00009D4C168C943490605D46FF040010161B7
:101DF000204600F049F820680169C94389060BD4E0
:101E0000C168C943890607D46FF0200101612046EB
:101E1000BDE87040FFF707BD70BD70477047000018
:101E200010B504460068012200F094FA08492068C1
:101E3000884202D00749884203D1416C41F40041F5
:101E400041642068016841F001010160002010BD7B
:101E50000000014000040140026801210848B2F17D
:101E6000804F07D0074B9A4203D14170416A491C09
:101E7000416270470170016A491C016270470000AD
:101E800000000020001000407047FEE77FB50024EE
:101E900015480094019402941249039401604FF490
:101EA0008031C0E90114846110490462C0E90A1458
:101EB00002260125C661C0E9034545610463FEF7BA
:101EC0005AFB04200094CDE9015069460648FEF70C
:101ED000A5FA0520CDE9000669460348FEF79EFAFB
:101EE0007FBD0000002001404C0000200100000FD9
:101EF0007FB500211448009101910291114A03918C
:101F000002604FF48032C0E9012181610F4A016211
:101F1000C0E90A2102250124C561C0E90314446116
:101F20000163FEF728FB04200094CDE901406946D7
:101F30000548FEF773FA0095694603480195FEF7D8
:101F40006DFA7FBD00210140940000200100000FC8
:101F50000A4809494FF4003201600921416000211B
:101F60008160C0E903124161017641768176C176D4
:101F700001774177FEF7E2BE00640040DC000020FC
:101F80002DE9F04387B014216846FEF76FF9454804
:101F90000024016841F004010160016801F00401BE
:101FA0000591016841F080010160016801F0800144
:101FB0000591016841F001010160016801F0010132
:101FC0000591016841F002010160016801F0020120
:101FD0000591016841F0080101600068324F00F08E
:101FE00008004FF403550590002229463846FFF7B4
:101FF000A6F8DFF8B8804FF400460022314640468C
:10200000FFF79DF8DFF8A890002204214846FFF76B
:1020100096F800950125CDE90154694638460394A8
:10202000FEF7B6FF282000900320CDE901046946A1
:102030003846FEF7ADFF7420CDE9000469464046FE
:102040000294FEF7A5FF0096CDE90154694640468B
:102050000394FEF79DFF4FF4D050CDE9000469468C
:1020600038460294FEF794FF4FF40140CDE9000496
:10207000694610480294FEF78BFFA80200900E48B4
:10208000CDE9010469463846FEF782FF042000903E
:10209000CDE90154694648460394FEF779FF07B03D
:1020A000BDE8F083303802400008024000040240DE
:1020B000000C0240000002400000111010B586B074
:1020C00000241148009401940294039404944FF066
:1020D0008041059401605A21C0E901144FF47A71DE
:1020E000C0E90314FFF7C8FB4FF480500090694625
:1020F0000548FFF747FC049404A903480594FFF73B
:1021000093FB06B010BD00000401002010B586B09E
:1021100000241448059404940094019402941049F6
:10212000039401605A21C0E901144FF6FF71C0E920
:102130000314FFF742FD049404A90A480594FFF72D
:1021400073FB022000900120CDE901040F200390D1
:10215000082269460348FFF7A1FC06B010BD000045
:102160000004004040010020FEE770470907090E07
:10217000002806DA00F00F0000F1E02080F8141DBE
:10218000704700F1E02080F80014704770477047F6
:10219000FEF7E0BF30B593B034216846FEF766F82D
:1021A00014210DA8FEF762F81A480025016841F0D5
:1021B00080510160006800F080501290164801685C
:1021C00041F4404101600068022400F44040129054
:1021D00001200090000401908001CDE90640042018
:1021E0000890B420CDE909040B9468460C94FFF7DD
:1021F00063F9FFF747F80DA90F2081E831004FF48C
:10220000A0501090E002119005210DA8FFF772F880
:1022100013B030BD403802400070004010480168E3
:1022200041F4700101600F48016841F00101016053
:102230000C4A00210832116002680B4B1A40026000
:10224000031D0A4A1A60026822F4802202600548CF
:102250000C30016002495806803908607047000060
:1022600088ED00E000380240FFFFF6FE1030002449
:102270000148FFF71FBD0000040100200148FFF7DF
:1022800019BD0000400100200148FFF713BD000008
:102290007C010020F0B50268234B244D244E254FCD
:1022A000254C4FF0804C984209D0604507D0A84299
:1022B00005D0B04203D0B84201D0A04204D122F0F0
:1022C000700E4A6842EA0E0298421BD0604519D04F
:1022D000A84217D0B04215D0B84213D0A04211D0B6
:1022E000164DA8420ED0164DA8420BD0154DA8424F
:1022F00008D0154DA84205D0144DA84202D0144D67
:10230000A84203D122F44075CA682A4302608A6851
:10231000C2620A688262984201D0A04201D1096972
:10232000016301214161F0BD000001400004004053
:1023300000080040000C0040000401400040014043
:10234000004401400048014000180040001C0040CB
:102350000020004010B50123046A8B409C430462B6
:10236000036A8A401343036210BD10B5846842EAD1
:10237000032224F47F440A432243826010BD826812
:1023800022F070020A4342F007018160704710B5E5
:10239000036A046A24F001040462846924F0F004EE
:1023A00044EA021423F00A020A438461026210BD67
:1023B00070B5046A24F0010404628469056A164E4B
:1023C000B04214D0B0F1804F11D0144EB0420ED0B4
:1023D000134EB0420BD0134EB04208D0124EB04252
:1023E00005D0124EB04202D0114EB04203D124F0BB
:1023F0000304144303E024F0030242F001041A072B
:1024000024F0F00444EA126225F00A0301F00A0104
:1024100019438261016270BD000001400004004068
:1024200000080040000C0040000401400040014052
:102430000018004010B5036A23F01003036283699B
:10244000046A23F4704343EA023224F0A00343EA0F
:1024500001118261016210BD30B5046A24F01004DC
:1024600004628469056A24F4407444EA022222F476
:1024700070444FF6FF7202EA03322243A02425F093
:10248000A00304EA011119438261016230BDFEE735
:1024900002E008C8121F08C1002AFAD1704770472D
:1024A000002001E001C1121F002AFBD1704700008B
:1024B0001CB5FEF757FEFFF76DFEFFF761FDFFF756
:1024C00047FDFFF7E3FC0025D8480095D649019564
:1024D00001605A21C0E9011542F21071C160FFF795
:1024E000CBF900956946D1480195FFF79DF9FFF7B3
:1024F0000DFEFFF7E3FDFFF7FBFCDFF83093CC495F
:1025000009F13C0948464FF0640A02C0B42180E852
:1025100022044846C9F81050FFF7AEF90821A9F186
:102520007800FFF7A1FBA9F1B400FFF71FFABF483D
:10253000FFF71CFA00214846FFF772FC09F1700012
:1025400001274561C0E90657056045608560C560A3
:102550000E210561C0E908710146A0F5A670FEF7DD
:10256000EBF9A9F1DC00FEF7DFFC0221A9F1DC00A8
:10257000FEF76AF9AF4EDFF8C0B209F15808A6F1CC
:1025800034042078E8B3A948E838FEF7E1F8A74812
:102590000121E838FEF78AF8A448E838FDF7E8FF9B
:1025A0002083A2480121E838FEF780F89F48E838E8
:1025B000FDF7DEFF60839D48E838FEF727F96521C7
:1025C000C8F800100621C8F81010208B010A3170DD
:1025D0007070608B010AB170F070E08B010A31718C
:1025E00070719248A16AA038FEF735FC0028F8D136
:1025F000904B8E490C3B9431E5708E4AA1F59A7050
:1026000000E005E0FEF734F900B9E770E5702570E9
:10261000607800287ED08948FEF79AF80121874823
:10262000FEF744F88548FDF7A3FFE08201218348C7
:10263000FEF73CF88148FDF79BFFA0837F48FEF73B
:10264000E5F8C621C8F800100421C8F81010E08A87
:10265000010A31707070A08B010AB170F070774878
:10266000A16A9030FEF7F7FB0028F8D16F49714B53
:102670009431E5700C3B6F4AA1F59A70FEF7F8F8BB
:1026800000B9E77010215846FEF754FD002861D0CC
:102690000020207120215846FEF74CFD00285BD019
:1026A0000020607140215846FEF744FD98B3002099
:1026B000A0714FF400416248FEF73CFD60B300207A
:1026C000E0714FF480515F48FEF734FD20724FF403
:1026D00000615C48FEF72EFD60724FF400715948AE
:1026E000FEF728FDA07204215846FEF723FDE07294
:1026F0004FF480715248FEF71DFD207340F2171110
:10270000C8F800100721C8F81010207930706079DF
:10271000707002E028E021E022E0A079B070E0795A
:10272000F070207A3071607A7071A07AB07143488D
:10273000A16A9030FEF78FFB0028F8D13B493D4B52
:102740009431E5700C3B3B4AA1F59A70FEF790F886
:1027500040B108E001209CE70120A2E70120A7E7A3
:102760000120ADE7E7706570A07800283FF409AF5D
:102770002E487830008880B2A082CC2847D12D48DE
:10278000083801786173427802F00F03637412090C
:10279000A273827802F00F0C120984F80FC0227421
:1027A000C078A074642904D9D9F80010C1F834A005
:1027B00002E0D9F8000041630D2B2AD000228021CD
:1027C0002048FEF7BCFCA07B0D2824D05FF000025F
:1027D0004FF400511B48FEF7B2FCE07B0D281CD0E3
:1027E000002240211748FEF7AAFC207C0D2816D0B5
:1027F0005FF000024FF400415846FEF7A0FCA07CB9
:102800000D280ED0002204210F48FEF798FCA57079
:10281000B7E60122D3E70122DAE70122E1E701224C
:10282000E8E70122EFE70000001000407C010020F3
:102830000048014034000020000402404C00002009
:102840000000024000080240000C024000000000AE
:102850000000000001020304060708097C280008A4
:10286000000000204C00000090240008C828000848
:102870004C00002004060000A02400080000000016
:102880000000000000000000000000000000000048
:102890000000000000000000000000000000000038
:1028A0000000000000000000000000000000000028
:1028B0000000000000000000010000001000000007
:0828C000000000000024F400F8
:04000005080001C529
:00000001FF
