:020000040800F2
:1000000010070020D90100086B2600080F22000805
:100010006926000809040008FF2A00080000000003
:100020000000000000000000000000008F26000813
:1000300019040008000000008D2600089126000821
:10004000F3010008F3010008F3010008F3010008C0
:10005000F3010008F3010008F3010008F3010008B0
:10006000F3010008F3010008F3010008F3010008A0
:10007000F3010008F3010008F3010008F301000890
:10008000F3010008F3010008F3010008F301000880
:100090000D040008F3010008F3010008F301000853
:1000A000F3010008F3010008F3010008F301000860
:1000B00071270008F30100087D270008F3010008FC
:1000C000F3010008F3010008F3010008F301000840
:1000D000F3010008F3010008F3010008F301000830
:1000E000F3010008F3010008F3010008F301000820
:1000F000F3010008F3010008F3010008F301000810
:10010000F3010008F301000889270008F301000843
:10011000F3010008F3010008F3010008F3010008EF
:10012000F3010008F3010008F3010008F3010008DF
:10013000F30100080000000000000000F3010008C7
:10014000F3010008F3010008F3010008F3010008BF
:10015000F3010008F3010008F3010008F3010008AF
:10016000F3010008F3010008F3010008F30100089F
:10017000F3010008F3010008F3010008000000008B
:1001800000000000F3010008000000000000000073
:10019000F30100080000000000000000F301000867
:1001A000000000000000000000000000F301000853
:1001B000F3010008F3010008F3010008F30100084F
:1001C000F3010008DFF80CD000F07AF8004800478F
:1001D000212B0008100700200648804706480047EA
:1001E000FEE7FEE7FEE7FEE7FEE7FEE7FEE7FEE7E7
:1001F000FEE7FEE71D270008C50100082DE9F05FB6
:100200000546002092469B46884606468146402485
:100210001BE0284641464746224600F041F8534637
:100220005A46C01A914110D311461846224600F092
:1002300028F82D1A67EB01084F46224601200021BD
:1002400000F01FF817EB00094E41201EA4F1010435
:10025000DFDC484631462A464346BDE8F09FD2B22D
:1002600001E000F8012B491EFBD270470022F6E79F
:1002700010B513460A4604461946FFF7F0FF20461C
:1002800010BD202A04DB203A00FA02F1002070475A
:100290009140C2F1200320FA03F3194390407047C4
:1002A000202A04DB203A21FA02F00021704721FACB
:1002B00002F3D040C2F12002914008431946704732
:1002C000064C074D06E0E06840F0010394E80700A3
:1002D00098471034AC42F6D3FFF778FF8C2F000814
:1002E000AC2F0008454910B54A6822F440324A60F4
:1002F0004A6843681A434A6001684A6822F4807277
:100300004A6001684A68036942EA03224A60016858
:100310004A6822F040724A6001684A6883681A435A
:100320004A6001688A6822F400628A6001688A680B
:10033000C3681A438A60816A6FF07062D1420168B3
:100340008A6822F070628A6001688A680CD0836AC9
:100350001A438A6001688A6822F040528A60016804
:100360008A68C36A1A4301E022F040528A60016839
:100370008A6822F002028A6001688A68836942EA18
:1003800043028A60016A002901684A680FD042F47A
:1003900000624A6001684A6822F460424A6001686B
:1003A0004A68174C436A04EB43331A4301E022F4D2
:1003B00000624A600168CA6A22F47002CA62016877
:1003C000CA6A838B0F4C04EB03531A43CA62016859
:1003D0008A6822F400728A6001688A68036B42EAC4
:1003E00043228A6001688A6822F480628A60016818
:1003F0008A68406942EA8020886010BD002301407D
:1004000000E0FFFF0000F0FFFEE70000014800F001
:1004100083BB0000D40000207047000078B50024A2
:10042000009490F83C20012A19D0012280F83C2049
:100430000A6807230568092A13D9EE680A3A02EB0D
:10044000420293409E43EE600A788B680A3A02EBC0
:10045000420293400268D5682B43D36010E002202B
:1004600078BD2E6902EB420293409E432E610A78CA
:100470008B6802EB42029340026815692B431361BB
:100480004A681F23072A13D205686E6B521E02EBBF
:10049000820293409E436E630B790A885B1E92B280
:1004A00003EB83039A4003685D6B2A435A6327E09A
:1004B00005680D2A12D22E6BD21F02EB82029340E6
:1004C0009E432E630B790A88DB1F92B203EB8303F2
:1004D0009A4003681D6B2A431A6311E0EE6A0D3AD5
:1004E00002EB820293409E43EE620B790A880D3B39
:1004F00092B203EB83039A400368DD6A2A43DA620F
:10050000174B0568154A9D4206D10D68122D03D17F
:10051000556845F48005556005689D4219D1114D17
:100520000B68AB4201D0112B13D1536843F4000385
:1005300053600968A9420CD10B490C4A0968B1FB08
:10054000F2F101EB8101490000E0491E0091002910
:10055000FBD180F83C40002078BD00000023014022
:1005600000200140120000104000002040420F0017
:100570000068C06C704770B504004FF0000503D0F0
:10058000206C002610B107E0012070BD666484F87D
:100590003C60204600F01AF8206CC00610D4206C95
:1005A00020F4885040F0020020642046FFF79AFEB5
:1005B0006664206C20F0020040F00100206400E03E
:1005C000012584F83C60284670BD000070B586B0F7
:1005D000044614216846FFF749FE2649244B226849
:1005E0000025244814390324234E9A4224D102685A
:1005F00042F480720260006800F480700590086820
:1006000040F004000860086800F0040005900868E5
:1006100040F0010008600868694600F0010005909C
:1006200001208DE83100154800F046FD40208DE89E
:1006300031006946304617E0114B9A4216D10268E4
:1006400042F400720260006800F4007005900868CF
:1006500040F0010008600868009400F00100059077
:1006600069463046CDE9014500F026FD06B070BD73
:1006700000200140443802400000024000080240CF
:10068000002101402DE9F041044600680D468168D3
:100690004FF0000749050BD58068C00508D5206CD0
:1006A00040F02000206484F83C700120BDE8F08117
:1006B00000F0DEFD06460FE0681C0DD025B100F00D
:1006C000D7FD801BA84207D9206C40F004002064AD
:1006D00084F83C700320E9E7206800688007EBD5C8
:1006E00021686FF012000860206C40F400702064F4
:1006F0002068816811F0405F13D1A16989B9C16A8E
:1007000011F4700F02D0806840050AD4206C20F4E8
:1007100080702064206CC00403D4206C40F0010081
:1007200020640020C2E7000018B50021009190F875
:100730003C20012A07D0012280F83C2002689368FF
:10074000DB0702D011E0022018BD936843F00103DB
:100750009360204A204B1268B2FBF3F202EB420294
:1007600000E0521E0092002AFBD102689368DB076A
:100770002DD0036C40F20164A34343F480730364FF
:1007800053685B0505D5036C23F4005343F4805391
:100790000364036CDB0404D5436C23F00603436459
:1007A00000E0416480F83C100C496FF022031360B4
:1007B00049680068C90602D00949884207D18168A2
:1007C00011F0405F03D1816841F0804181600020D9
:1007D00018BD00004000002040420F0000230140EF
:1007E0000020014090F83C1001290CD0012180F834
:1007F0003C1001688A6822F001028A6001688968F9
:10080000C90702D007E002207047016C21F488512B
:1008100041F001010164002180F83C100846704756
:1008200090F82020012A09D090F82020022A05D033
:10083000416A41F4802141620120704700684269A9
:100840000A43426100207047F0B590F82040012C27
:1008500007D090F82040022C03D0416A41F4802157
:1008600053E00468A5686D0105D4A5682D0102D484
:10087000A568ED0046D5A4680125C4F30164A54030
:100880001D608D684FF4C0739DB1CE6835434E68CE
:1008900045EAC605066803EB0417F5514FF4C27527
:1008A000076805EB04150E697E51097D012905D005
:1008B00009E00E88CD6845EA4655EBE701684E59D8
:1008C00046F480764E511179D2F805504FF4C67631
:1008D00041EA0521056806EB0416A9511178D2F802
:1008E00001204FF4C47541EA0221026805EB0415AA
:1008F0005151006803EB0411425842F0010242508A
:100900000020F0BD416A41F4001141620120F0BDB8
:1009100010B590F82020012A09D090F82020022A52
:1009200005D0416A41F480214162012010BD3A485E
:10093000D0F8002242F00102C0F80022D0F80022D4
:1009400022F47C52C0F80022D0F800224B6A42EA1E
:100950000322C0F800220B7D01229A40D0F81C32FD
:100960009343C0F81C32CB69B3B9D0F80C3293432F
:10097000C0F80C328C894B6864F31F434C6900EB60
:10098000C404C4F840320C890B6864F31F434C69FB
:1009900000EBC404C4F84432CB69012B16D1D0F863
:1009A0000C321343C0F80C320C884B6864F31F43BD
:1009B0004C6900EBC404C4F840320C89CB6864F382
:1009C0001F434C6900EBC404C4F844328B69002B0C
:1009D000D0F804320ED01343C0F804320B69002B58
:1009E000D0F8143208D01343C0F81432096A012930
:1009F00004D008E09343EFE79343F5E7D0F81C12E7
:100A00001143C0F81C12D0F8001221F00101C0F807
:100A10000012002010BD000000640040704730B597
:100A200090F82040012C07D090F82040022C03D0F1
:100A3000416A41F4802109E011B1012909D00CE09B
:100A40000468E46807E0416A41F400114162012052
:100A500030BD04682469A407F5D04FF4D874056844
:100A600004EB01142D5915F00405956005682D5906
:100A700042D0ED08556005682C59C4F34004D46099
:100A80004FF4DA74056804EB01142D5905F00F05D5
:100A9000156105682D59C5F30725956105682C5921
:100AA000240C54614FF4DC72046802EB0112A45868
:100AB0001C700468A458240A5C700468A458240CB0
:100AC0009C700468A258120EDA704FF4DE7204684B
:100AD00002EB0112A4581C710468A458240A5C712A
:100AE0000468A458240C9C710468A258120EDA7190
:100AF00029B1012909D00DE06D0D1560BBE7006833
:100B0000C16841F02001C16004E00068016941F062
:100B100020010161002030BD2DE9F05F054600682D
:100B200000244669D0F804908768D0F80CB0D0F85B
:100B300010A0D0F81880F10748D0F90714D001218F
:100B40008160B80703D5284600F007FA0CE0780763
:100B500002D54FF4006407E0380702D54FF4805403
:100B600002E0284600F0F8F9F80516D529684FF498
:100B700080708860B80503D5284600F0F0F90CE0D5
:100B8000780502D544F4005407E0380502D544F452
:100B9000804402E0284600F0E1F9F80316D5296800
:100BA0004FF480308860B80303D5284600F0D9F9A7
:100BB0000CE0780302D544F4004407E0380302D582
:100BC00044F4803402E0284600F0CAF9300707D523
:100BD0005FEACB6004D52968102044F40074C86033
:100BE00070074FF0080707D55FEA0B7004D5286837
:100BF000C760284600F06AF9B00706D52868C068C3
:100C0000800702D0284600F063F9700607D55FEA36
:100C1000CA6004D52968102044F480640861B006D5
:100C200007D55FEA0A7004D528680761284600F0F6
:100C300063F9F00606D528680069800702D02846C7
:100C400000F05BF9B00308D55FEAC96005D52968F3
:100C500010204860284600F051F9F00307D55FEAFC
:100C6000097004D528684760284600F07BF93004F5
:100C700046D55FEA497040D5F00504D55FEAC870F3
:100C800001D044F00104B00504D55FEA887001D5B5
:100C900044F00204700504D55FEA487001D544F0C1
:100CA0000404300529D518F0700F26D008F0700024
:100CB000402815D006DC102809D020280AD030287A
:100CC00016D10AE050280ED0602811D10EE044F071
:100CD00008040DE044F010040AE044F0200407E0AA
:100CE00044F0400404E044F0800401E044F48074E3
:100CF0002868816921F070018161296804204860B9
:100D0000002C05D0686A204368622846FFF786FEFB
:100D1000BDE8F09F70B5040003D094F8200010B136
:100D200004E0012070BD204600F092F820680168C0
:100D300021F00201016000F09BFA0546052604E05F
:100D400000F096FA401B0A2811D8206840688007F6
:100D5000F6D42068016841F00101016000F088FAD2
:100D600005460BE000F084FA401B0A2806D9606AA9
:100D700040F40030606284F82060D2E72068406868
:100D8000C007EFD0207E0128206801683DD021F007
:100D900080010160607E01282068016838D021F060
:100DA00040010160A07E01282068016833D021F055
:100DB00020010160E07E0128206801682ED041F00A
:100DC00010010160207F01282068016829D021F0EE
:100DD00008010160607F01282068016824D021F0AB
:100DE00004010160D4E902010843D4E9041211436B
:100DF00008436168491E08432168C8610020606299
:100E0000012084F82000002070BD41F08001C0E77F
:100E100041F04001C5E741F02001CAE721F010018F
:100E2000CFE741F00801D4E741F00401D9E790F899
:100E300020300022012B03D090F82030022B05D166
:100E4000006889068068814300D0012210467047FF
:100E500010B586B0044614216846FFF707FA184912
:100E60002068884229D117480021026842F00072A8
:100E70000260006800F000700590124810380268A7
:100E800042F001020260006800F0010005904FF49A
:100E9000C05000900220CDE90101032003900920F9
:100EA00004906946084800F007F900221146142012
:100EB00000F04AFA142000F03BFA06B010BD000022
:100EC00000640040403802400000024070470000CB
:100ED0000649884209D10649012001F1240388709E
:100EE000044A00210148FFF79ABD7047D400002052
:100EF00000000020B40200207047704770470000D7
:100F000070B5044690F82000012804D0606A40F4CF
:100F10000020606218E0022084F820002068016848
:100F200021F00101016000F0A3F905460EE000BFC9
:100F300000F09EF9401B0A2808D9606A40F400308E
:100F40006062052084F82000012070BD20684068A0
:100F5000C007EDD1606270BD704770477047704741
:100F600070477047704770B54379012B1AD001263E
:100F700046710223037105682C6840F6FE739340A6
:100F80009C43D1E900310B43934023432B6001681C
:100F90000B68C0249440A3430B600671002141718B
:100FA000084670BD022070BD70B5040003D02079E2
:100FB000002510B105E0012070BD6571204600F0EC
:100FC00007F802202071256101202071002070BDEA
:100FD00010B586B0044614216846FFF747F9114959
:100FE000206888421CD110480021026842F000525B
:100FF0000260006800F0005005900B48103802684D
:1010000042F001020260006800F00100059030200B
:1010100000900320CDE901016946044800F04CF836
:1010200006B010BD0074004040380240000002408D
:1010300018B5046800940068104421B11430009081
:101040000360002018BD0830F9E730B54279012A65
:1010500016D0012242710223037103681D6802FA4F
:1010600001F425431D60002901680B680AD00C6853
:1010700003F4802304F46014B3F5802F0FD015E03F
:10108000022030BD0C6803F0040304F03804042B84
:101090000CD1382C0AD14B6843F0010305E0B4F5BC
:1010A000601F03D14B6843F002034B6002710021C3
:1010B0004171084630BD00002DE9F84FDFF874B1EA
:1010C00000224FF001084FF0030A4FF00F090BF117
:1010D000040E00BF0B6808FA02F42340A3426ED14D
:1010E0004D68022D01D0122D0ED1D50800EB850CD4
:1010F000DCF820505607F70E09FA07F6B5430E69DB
:10110000BE402E43CCF82060066855000F790AFADD
:1011100005FC07F0030726EA0C06AF4037430760DB
:101120004E68012E05D0022E03D0112E01D0122EB2
:101130000ED18668CF6826EA0C06AF403743876039
:101140004668A6430C79C4F30014944034434460C9
:10115000C4688E6824EA0C04AE402643C6604C681E
:10116000E40060D5344C256845F48045256024684A
:1011700022F0030504F480440094304C2E19D6F874
:10118000084895072F0F09FA07F5AC432C4DA842E4
:1011900001D100251FE02B4DA84201D101251AE005
:1011A000294DA84201D1022515E0284DA84201D1C0
:1011B000032510E0264DA84202D104250BE032E0C1
:1011C000244DA84201D1052505E0234DA84201D1B7
:1011D000062500E00725BD402543C6F80858DBF882
:1011E00000405D464E689C43F60300D51C432C60CE
:1011F000DEF8004075464E689C43B60300D51C439C
:101200002C600C4D08352C684E689C43F60200D5C6
:101210001C432C60074D0C352C684E689C43B6026D
:1012200000D51C432C60521C102AFFF453AFBDE8BC
:10123000F88F0000003C014044380240003001407B
:10124000000002400004024000080240000C02407E
:1012500000100240001402400018024000690840DB
:1012600000D0012070470AB1816170470904FBE793
:1012700001488068704700003400002002488168FF
:101280000278114481607047340000200B4810B58B
:10129000016841F400710160016841F480610160FE
:1012A000016841F480710160032000F06DF80020B6
:1012B00000F006F800F024F8002010BD003C0240C9
:1012C00070B50D4D04464FF47A712878B1FBF0F0FB
:1012D0000A490968B1FBF0F000F024FB48B9102C72
:1012E00007D200222146501E00F02EF800206C602C
:1012F00070BD012070BD00003400002040000020BF
:101300000A4808B5016841F480410160006800F4B2
:10131000804000900548001F016841F08051016045
:10132000006800F08050009008BD00004438024082
:1013300000F01F02012191404009800000F1E020EF
:10134000C0F8001170470000F0B40E4B1B680C464B
:10135000C3F30223C3F10705042D00D90425191D89
:10136000072901D2002300E0DB1E012606FA05F161
:10137000491E214099409E40761E16403143F0BCE4
:1013800001F074B90CED00E0064900F007020868AE
:101390004FF6FF03184040EA0220034A104308605A
:1013A000704700000CED00E00000FA052DE9F8435D
:1013B0001748016841F0805101600068154F00F046
:1013C0008050012600903E64FFF752FF05464FF41F
:1013D0007A78114C05E000BFFFF74AFF401B4045FB
:1013E0000DD86068C003F7D57E64FFF741FF05465E
:1013F000464607E0FFF73CFF401BB04202D90320FE
:10140000BDE8F88360688003F4D50020F8E70000A9
:101410004038024000000E42007000402DE9F047C5
:101420000E46050065D0DFF81481D8F80000F7B249
:1014300000F00F00B04207D288F80070D8F8000022
:1014400000F00F00B04254D128683D4C810712D5FE
:10145000400703D5206840F4E0502060287800075A
:1014600003D5206840F4604020602068A96820F01F
:10147000F000084320602878C0072DD03049686804
:101480000839012812D0022813D0032811D0096886
:10149000890700292DDA216821F003010143216029
:1014A000FFF7E6FE814641F2883A0EE009688903BB
:1014B000EFE709688901ECE7FFF7DAFEA0EB090125
:1014C000514502D90320BDE8F0872068696800F023
:1014D0000C00B0EB810FEFD1D8F80010404601F0BE
:1014E0000F01B14207D90770006800F00F00B04249
:1014F00001D00120E7E72878400705D52068E96892
:1015000020F4E050084320602878000706D52068C2
:10151000296920F4604040EAC100206000F016F81C
:101520002168084AC1F30311515CC84006490860AC
:101530000020FFF7C5FE0020C5E70000003C024088
:10154000083802407C2F000840000020224810B5D7
:10155000006810F00C02214815D04110042A11D067
:101560001D4C241F082A0FD00C2A0CD12268236896
:1015700002F03F025B0221D52068C0F38810A0FB77
:10158000010120E0084610BD2268236802F03F02F6
:101590005B0205D52068C0F38810A0FB010104E0C0
:1015A0002168C1F38811A1FB00010023FEF726FE8C
:1015B0002168C1F30141491C49000AE02168C1F3D7
:1015C0008811A1FB00010023FEF718FE2168C1F37A
:1015D0000271B0FBF1F010BD083802400024F400A5
:1015E0002DE9F84F0546DFF828B30078ABF1040782
:1015F000C007A7F1040451D0DBF800105846C1F32E
:10160000810101290FD00168C1F38101022902D1B2
:101610003968490207D40068C0F38100032809D162
:101620003868400206D52068800337D568680028EE
:1016300072D033E06868B0F5803F10D0B0F5A02FCD
:10164000206810D020F480302060206820F48020B2
:1016500020606868A8B1FFF70BFE06460DE0206821
:1016600040F48030F4E740F480202060F7E700BFCA
:10167000FFF7FEFD801B642878D820688003F7D52B
:101680000CE0FFF7F5FD064605E000BFFFF7F0FDB3
:10169000801B6428F0D820688003F7D42878DFF80E
:1016A000749280074FF0000A46D5DBF800105846C8
:1016B00011F00C0F0FD00168C1F38101022902D192
:1016C0003968490207D50068C0F38100032809D1B1
:1016D0003868400206D42068800715D5E8680128DC
:1016E0001AD111E0E868C0B10120C9F80000FFF785
:1016F000BFFD064605E000BFFFF7BAFD801B0228CC
:10170000BAD820688007F7D52068296920F0F8004A
:1017100040EAC10020600FE0F7E0C9F800A0FFF741
:10172000A7FD064605E000BFFFF7A2FD801B0228CB
:101730001CD820688007F7D42878000727D5DFF861
:10174000D0817548696908F16C0881B10121016097
:10175000FFF78EFD064604E0FFF78AFD801B022896
:1017600004D8D8F800008007F6D510E089E0C0F86A
:1017700000A0FFF77DFD064605E000BFFFF778FDFE
:10178000801B02287DD8D8F800008007F6D428787E
:10179000400769D55E484FF0000838300068C00047
:1017A0000BD45B483830016841F08051016000681B
:1017B0004FF0010800F080500090584E3068C0058E
:1017C00011D4306840F480703060FFF751FD009014
:1017D00006E000BFFFF74CFD0099401A022850D8E0
:1017E0003068C005F6D54A4EA868683601280FD083
:1017F0000528306810D020F001003060306820F0FB
:1018000004003060A868B8B1FFF732FD00900FE027
:10181000306840F00100F4E740F004003060F7E782
:10182000FFF726FD0099411A41F28830814264D8C1
:1018300030688007F4D50EE0FFF71AFD009007E04E
:10184000FFF716FD0099411A41F28830814254D8C1
:1018500030688007F4D4B8F1000F05D02C48383038
:10186000016821F080510160A869A8B3DBF800107D
:10187000C1F38101022948D00228C9F860A005D02F
:1018800000E03AE0FFF7F4FC054639E0FFF7F0FC32
:10189000064604E0FFF7ECFC801B02282DD82068E8
:1018A0008001F7D4F5E907010843E9681C4A4908B3
:1018B00002EB0141AA6841EA82110843297C40EA0F
:1018C0000160297D40EA017038600120C9F860009C
:1018D000FFF7CEFC054606E015E000BFFFF7C8FCA9
:1018E000401B022809D820688001F7D50BE000BF13
:1018F000FFF7BEFC401B022802D90320BDE8F88F89
:1019000020688001F4D40020F8E70120F6E7000009
:101910000838024000004742800E474200700040F5
:101920000000FFFF10B5401EB0F1807F01D3012001
:1019300010BD4FF0E02460610F21601700F096FEAB
:101940000020A06107202061002010BD7047704773
:1019500010B590F83820012A25D0012280F83820CF
:10196000CA688C6822F4407222434C6822F4806278
:1019700022430C6822F4006222430C6922F4805254
:1019800022434C6922F4005222438C6922F48042A3
:10199000224322F40041026800232143516480F86D
:1019A0003830002010BD022010BD30B590F838202E
:1019B000012A20D0012280F83820022380F8393013
:1019C00003685C6824F070045C6003685C680D6800
:1019D0002C435C6003689C6824F080049C6003686E
:1019E0009C6849680C439C6080F83920002180F88D
:1019F0003810084630BD022030BD10B5040003D0B9
:101A000094F8390010B107E0012010BD002084F8DF
:101A10003800204600F00CF8022084F83900211D1F
:101A2000206800F0B7FE012084F83900002010BDC6
:101A300008B5154A0168154891420ED1016841F078
:101A4000040101600068002200F0040000901146CB
:101A50001E20FFF779FC1E2010E00D4A914211D1A3
:101A6000016841F0080101600068002200F00800F0
:101A7000009011463220FFF767FC3220BDE8084095
:101A8000FFF756BC08BD0000000800404038024087
:101A9000000C00400168CA6842F00102CA60006898
:101AA000016841F0010101600020704770B50446F3
:101AB00090F83800012817D0012584F8385002200A
:101AC00084F839002068826822F0770222F47F428D
:101AD00082600868502837D00DDC202859D005DCFA
:101AE00088B3102841D151E0022070BD302853D076
:101AF00040283AD13FE060282ED070280BD0B0F5B6
:101B0000805F03D0B0F5005F2FD110E020688168BE
:101B100021F0070115E0CB68D1E90121206800F030
:101B2000A4FE2168886840F0770088601DE0CB68DB
:101B3000D1E90121206800F098FE2068816841F415
:101B40008041816011E01EE0CA684968206800F0A9
:101B500055FF5021206806E0CA684968206800F0F7
:101B6000A1FF6021206800F08AFE84F8395000202F
:101B700084F8380070BDCA684968206800F03EFFEC
:101B800040212068EFE700212068ECE71021206861
:101B9000E9E720212068E6E730212068E3E700003C
:101BA000074A01680748914203D1418B491C418390
:101BB0007047B1F1804FFBD1818B491C8183704705
:101BC00000400140000000202DE9F041044690F85B
:101BD00038000D4601283DD0012684F838600220E7
:101BE00084F83900AAB3042A46D02068082A55D0C0
:101BF000D5E90027E968036A23F480530362D0F82B
:101C00001CC0036A2CF4407C4CEA07274FF6FF7C8B
:101C100027F470470CEA013139434FF4204723F48D
:101C2000204307EA02321A43C16102622068C16997
:101C300021F44061C1612068C169AA6841EA0221BA
:101C4000C0F81C1084F83960002084F83800BDE822
:101C5000F08101E00220FAE7D5E90012EB68206884
:101C600000F0DEFE2068816921F00C0181612068AE
:101C70008169AA6811430FE0D5E90012EB6820687A
:101C800000F022FF2068816921F4406181612068B1
:101C90008169AA6841EA02218161D3E7D5E9002C74
:101CA0002F7B016A21F480710162C169036A21F00E
:101CB000030141EA0C0121F0F00C39074FF42067D1
:101CC0004CEA116123F4206307EA02221A43C1613E
:101CD00002622068C16921F00C01C1612068C169FC
:101CE000AA681143ACE710B5040003D094F839009A
:101CF00010B107E0012010BD002084F83800204614
:101D000000F00CF8022084F83900211D206800F052
:101D100041FD012084F83900002010BD30B587B0A6
:101D2000044614216846FEF7A1FA236800222649DA
:101D300002242648B3F1804F20D0254DAB421BD161
:101D4000214B14331D6845F480351D601B6803F476
:101D5000803305930B6843F001030B60096801F0C1
:101D60000101059108210091CDE901420321CDE94E
:101D700003216946FFF7A0F907B030BD124B1033BD
:101D80001D6845F001051D601B6803F00103059304
:101D90000B6843F001030B60096801F00101059134
:101DA00004210091CDE901420121CDE903216946D9
:101DB000FFF782F9002211461C20FFF7C5FA1C200C
:101DC000FFF7B6FAD8E700003038024000000240C2
:101DD0000040014010B50268044631B1042908D022
:101DE000082915D00C2908D116E0D06840F002006F
:101DF00002E0D06840F00400D0600122206800F0CA
:101E000029FD2068016841F001010160002010BD3A
:101E1000D06840F00800EFE7D06840F01000EBE732
:101E200070B50446006801694FF00005C943890791
:101E300015D4C168C943890711D4E91E0161012085
:101E40002076206880698007204602D0FFF7A8FE30
:101E500004E000F0F5F8204600F0A6F925762068A9
:101E60000169C943490717D4C168C943490713D455
:101E70006FF004010161022020762068806910F46F
:101E8000407F204602D0FFF78BFE04E000F0D8F838
:101E9000204600F089F9257620680169C9430907C1
:101EA00016D4C168C943090712D46FF00801016153
:101EB000042020762068C0698007204602D0FFF702
:101EC0006FFE04E000F0BCF8204600F06DF92576C6
:101ED00020680169C943C90617D4C168C943C90646
:101EE00013D46FF010010161082020762068C069CA
:101EF00010F4407F204602D0FFF752FE04E000F0CD
:101F00009FF8204600F050F9257620680169C94302
:101F1000C90708D1C168C943C90704D1891E016135
:101F2000204600F05FF920680169C943090609D419
:101F3000C168C943090605D46FF0800101612046DC
:101F4000FFF704FD20680169C943490609D4C16847
:101F5000C943490605D46FF040010161204600F0F5
:101F600055F920680169C94389060BD4C168C94382
:101F7000890607D46FF0200101612046BDE870405A
:101F8000FFF7E5BC70BD000010B586B00446142113
:101F90006846FEF76BF92368224C00212248022292
:101FA000A34211D1036843F001030360006800F00D
:101FB00001000590D0010090CDE901210120CDE97B
:101FC00003106946194813E0194CA34214D1036861
:101FD00043F004030360006800F0040005904FF430
:101FE00050700090CDE90121CDE9031269461148F6
:101FF000FFF762F806B010BD0F4CA342FAD1036898
:1020000043F002030360006800F002000590E01353
:102010000090CDE901210920CDE903106946074868
:10202000E6E70000000001403038024000000240B6
:102030000004004000080240001800400004024074
:10204000704770B5044690F838000D4601280DD051
:10205000012684F83860022084F8390042B1042A4D
:1020600018D0082A2AD00C2A4DD139E0022070BDA0
:10207000206800F00DFC2068816941F00801816151
:102080002068816921F004018161206881692A69E1
:10209000114311E0206800F027FC2068816941F4B9
:1020A000006181612068816921F48061816120681B
:1020B00081692A6941EA0221816124E0206800F0F7
:1020C00045FC2068C16941F00801C1612068C1690F
:1020D00021F00401C1612068C1692A69114311E03E
:1020E000206800F063FC2068C16941F40061C161AF
:1020F0002068C16921F48061C1612068C1692A69D1
:1021000041EA0221C16184F83960002084F8380076
:1021100070BD10B5040003D094F8390010B107E089
:10212000012010BD002084F83800204600F00CF893
:10213000022084F83900211D206800F02BFB0120CB
:1021400084F83900002010BD08B5016812488142AA
:1021500008D11248016841F001010160006800F0F7
:1021600001000BE00D480E4A001F914208D10168A2
:1021700041F002010160006800F00200009008BD1B
:10218000084A9142FBD1016841F0400101600068BA
:1021900000F04000F2E70000000001404438024037
:1021A00000040040001800407047000010B50446CD
:1021B0000068012200F04EFB08492068884202D0E6
:1021C0000749884203D1416C41F4004141642068D1
:1021D000016841F001010160002010BD00000140D4
:1021E000000401400068064B0121064A984201D1D3
:1021F00011707047044B9842FBD15170704700003A
:102200000008004000000020000C00407047FEE77E
:102210007FB500211948009101910291164A03915E
:1022200002604FF48032C0E901218161144A0162E9
:10223000C0E90A2103250124C561C0E903144461F2
:102240000163FEF798F90620CDE9000402246946EF
:102250000A480294FEF7E2F80A20CDE90004694634
:102260000648FEF7DBF80748CDE900056946034854
:10227000FEF7D4F87FBD000000200140440000209C
:102280000100000F120000107FB5002413480094D5
:10229000019402941049039401604FF48031C0E925
:1022A000011484610E490462C0E90A140226012562
:1022B000C661C0E9034545610463FEF75CF98DE83A
:1022C000700069460548FEF7A9F8CDE90056694651
:1022D0000248FEF7A3F87FBD002101408C000020DA
:1022E0000100000F0A4809494FF40032016009213A
:1022F000416000218160C0E90312416101764176AD
:102300008176C17601774177FEF704BD0064004015
:10231000D40000202DE9F04F87B014216846FDF766
:10232000A5FF40480024016841F080010160016878
:1023300001F080010591016841F00401016001682C
:1023400001F004010591016841F00101016001689B
:1023500001F001010591016841F00201016000688E
:10236000DFF8C49000F0020005900022A02148464A
:10237000FEF779FFDFF8B4B0002240F24221584660
:10238000FEF771FFDFF8A8A04FF400480022414695
:102390005046FEF768FF0820CDE90004694648462C
:1023A0000294FEF789FE8027CDE900746946504605
:1023B0000294FEF781FE202000900125CDE9015412
:1023C000694648460394FEF777FE02260096CDE95B
:1023D0000154694658460394FEF76EFE0420CDE989
:1023E0000004694658460294FEF766FECDE9026491
:1023F000CDE9007569464846FEF75EFECDE9026408
:10240000CDE9008569465046FEF756FE4FF4107040
:1024100003948DE8610069465846FEF74DFE07B00B
:10242000BDE8F08F3038024000080240000402404E
:102430000000024010B588B01C216846FDF716FF69
:102440000E480D49002401605A21C0E9011464219D
:10245000C0E90314FFF75DFE6020CDE9000402949B
:102460000422694605480494FFF7EBFD0348FFF793
:102470008BFD08B010BD000000180040780200205D
:1024800010B590B000240E941C2168460F94FDF7FF
:10249000EDFE1C2107A8FDF7E9FE19481749016068
:1024A000B421C0E901146421C0E903144461FFF7B9
:1024B00030FE0E940EA912480F94FFF776FA6020B2
:1024C000CDE9000402940394049405940022694623
:1024D0000B480694FFF7B5FD0794089409944FF450
:1024E00000500A94CDE90B4007A905480D94FFF769
:1024F0002FFA0348FFF748FD10B010BD000001405F
:102500001001002010B586B00024124805940494F0
:102510000094019402944FF08041039401605A2189
:10252000C0E901144FF47A71C0E90314FFF7DBFB33
:10253000049404A907480594FFF737FA0120CDE970
:10254000004002940822694602480394FFF73CFBCE
:1025500006B010BD4C01002010B58AB000240794CD
:102560001C2168460894FDF781FE16481449016055
:102570005A21C0E901146421C0E90314FFF7C9FD21
:10258000079407A90F480894FFF70FFA6020CDE9D8
:1025900000040294002269460A480494FFF751FDA2
:1025A000082269460748FFF74CFD0C22694605489A
:1025B000FFF747FD0348FFF7E7FC0AB010BD000036
:1025C000000400408801002010B586B000241148A6
:1025D000009401940294039404940D4905940160BD
:1025E0005A21C0E901144FF47A71C0E90314FFF7CE
:1025F00004FA4FF48050009069460648FFF756FAF7
:10260000049404A903480594FFF7CFF906B010BD60
:1026100000080040C401002010B586B00024114815
:10262000009401940294039404940D49059401606C
:102630005A21C0E9011442F21071C0E90314FFF7F6
:10264000DCF94FF48050009069460648FFF72EFAF7
:10265000049404A903480594FFF7A7F906B010BD38
:10266000000C004000020020FEE770470907090E39
:10267000002806DA00F00F0000F1E02080F8141DB9
:10268000704700F1E02080F80014704770477047F1
:10269000FEF7F4BD30B593B034216846FDF7E6FD92
:1026A00014210DA8FDF7E2FD1A480025016841F04C
:1026B00080510160006800F0805012901648016857
:1026C00041F4404101600068022400F4404012904F
:1026D00001200090000401908001CDE90640042013
:1026E0000890B420CDE909040B9468460C94FEF7D9
:1026F00077FFFEF75BFE0DA90F2081E831004FF454
:10270000A0501090E002119005210DA8FEF786FE62
:1027100013B030BD403802400070004010480168DE
:1027200041F4700101600F48016841F0010101604E
:102730000C4A00210832116002680B4B1A400260FB
:10274000031D0A4A1A60026822F4802202600548CA
:102750000C3001600249580680390860704700005B
:1027600088ED00E000380240FFFFF6FE1030002444
:102770000148FFF755BB00004C0100200148FFF75E
:102780004FBB0000C40100200148FFF749BB000017
:1027900000020020F0B50268234B244D244E254F43
:1027A000254C4FF0804C984209D0604507D0A84294
:1027B00005D0B04203D0B84201D0A04204D122F0EB
:1027C000700E4A6842EA0E0298421BD0604519D04A
:1027D000A84217D0B04215D0B84213D0A04211D0B1
:1027E000164DA8420ED0164DA8420BD0154DA8424A
:1027F00008D0154DA84205D0144DA84202D0144D62
:10280000A84203D122F44075CA682A4302608A684C
:10281000C2620A688262984201D0A04201D109696D
:10282000016301214161F0BD00000140000400404E
:1028300000080040000C004000040140004001403E
:10284000004401400048014000180040001C0040C6
:102850000020004010B50123046A8B409C430462B1
:10286000036A8A401343036210BD10B5846842EACC
:10287000032224F47F440A432243826010BD82680D
:1028800022F070020A4342F00701816070470000A5
:1028900030B5026A22F001020262026A436884696A
:1028A0000D6824F07304254322F002048A68224351
:1028B0000B4CA04202D00B4CA0420BD122F00804DA
:1028C000CA6823F4407322434C6922F004021C437B
:1028D0008B6923434360856149684163026230BD6F
:1028E000000001400004014030B5026A22F01002ED
:1028F0000262026A436884690D6824F4E64444EA8B
:1029000005248D6822F0200242EA05120D4DA842EE
:1029100002D00D4DA8420ED1CD6822F0800242EACD
:1029200005124D6923F4406343EA85038D6922F063
:10293000400243EA8503436084614968816302621F
:1029400030BD0000000001400004014030B5026AC3
:1029500022F480720262036A4268C46923F400733D
:1029600024F073050C682C438D6843EA05230D4D54
:10297000A84202D00C4DA8420ED1CD6823F40063CA
:1029800043EA05234D6922F4405242EA05128D695B
:1029900023F4806342EA05124260C4614968C1635E
:1029A000036230BD000001400004014030B5026AFE
:1029B00022F480520262046A4268C3690D6823F4FB
:1029C000E64343EA05238D6824F4005444EA0534C1
:1029D000084DA84202D0084DA84204D14D6922F406
:1029E000804242EA85124260C36149680164046220
:1029F00030BD0000000001400004014010B5036A32
:102A0000046A24F001040462846924F0F00444EAB6
:102A1000021423F00A020A438461026210BD00001E
:102A200070B5046A24F0010404628469056A164ED4
:102A3000B04214D0B0F1804F11D0144EB0420ED03D
:102A4000134EB0420BD0134EB04208D0124EB042DB
:102A500005D0124EB04202D0114EB04203D124F044
:102A60000304144303E024F0030242F001041A07B4
:102A700024F0F00444EA126225F00A0301F00A018E
:102A800019438261016270BD0000014000040040F2
:102A900000080040000C00400004014000400140DC
:102AA0000018004010B5036A23F010030362836925
:102AB000046A23F4704343EA023224F0A00343EA99
:102AC00001118261016210BD30B5046A24F0100466
:102AD00004628469056A24F4407444EA022222F400
:102AE00070444FF6FF7202EA03322243A02425F01D
:102AF000A00304EA011119438261016230BDFEE7BF
:102B000002E008C8121F08C1002AFAD170477047B6
:102B1000002001E001C1121F002AFBD17047000014
:102B20002DED028B84B0FEF7B1FBFFF7B3FDFFF78D
:102B3000F1FBFFF7D7FBFFF76BFBFFF7A5FB0025CA
:102B4000FA490095F848019508600846FEF72CFA06
:102B5000009500226946F5480195FEF704FA102217
:102B60006946F248FEF7FFF9FFF78AFCFFF7F4FC2D
:102B7000FFF760FCFFF7C6FCFFF726FDFFF74CFDF3
:102B8000EC48009501950295E9490395C0E90015C7
:102B90008560C5600561FFF7A6F84FF00109CDE932
:102BA00000594C46029504226946E2480395FFF716
:102BB0000BF8DE4808215030FFF70CF90421DD48FE
:102BC000FFF708F9DB487838FEF764FFD9483C384E
:102BD000FEF760FFD54800211430FFF7E7FAD3482D
:102BE00000218C30FFF7E2FAD04808218C30FFF743
:102BF000DDFACE480C218C30FFF7D8FACD480421FD
:102C00003C30FFF7D3FA0021C848FEF71EFA102126
:102C1000C648FEF71AFAC7480E21AC304561C0E934
:102C20000654056045608560C5600561C0E90841DE
:102C30000146A0F50570FDF76BFEBC482838FEF78D
:102C40005FF9BA4802212838FDF7EAFDDFF8E4A26F
:102C5000DFF8E4B20AF1940AABF10806AAF11C0706
:102C6000A6F124042078E8B3B0487038FDF75CFD85
:102C7000AE4801217038FDF705FDAC487038FDF70E
:102C800077FC6082A94801217038FDF7FBFCA7485A
:102C90007038FDF76DFCA082A4487038FDF7A2FDE6
:102CA0004FF49D71CAF800100421CAF81010618A0F
:102CB000A14B0A0A8BF800208BF80110A18A0C3B6B
:102CC0000A0A8BF802208BF803109A499A4A943129
:102CD000A1F5FE70FDF7B8FD08B984F8039093489C
:102CE000283800E006E0216AFEF7A1F80028F6D1B6
:102CF000E5702570607800287DD08C48B838FDF7E5
:102D000013FD8A480121B838FDF7BCFC8748B83864
:102D1000FDF72EFC208385480121B838FDF7B2FC71
:102D20008248B838FDF724FCE08280480121B83899
:102D3000FDF7A8FC7D48B838FDF71AFCE0837B4816
:102D4000B838FDF74FFD40F26511CAF800100821B0
:102D5000CAF81010218B784B0A0A8BF800208BF8E8
:102D60000110E18A0C3B0A0A8BF802208BF8031051
:102D7000E18B0A0A8BF804208BF805106D496E4A26
:102D80009431A1F5FE70FDF75FFD08B984F803905A
:102D90006648216A2838FEF74AF80028F8D1E5701D
:102DA00008216648FEF75AFAE07304216448FEF7EA
:102DB00055FA607480216348FEF750FA20744FF48E
:102DC000C072CAF800200722CAF81020628B130ACA
:102DD0008BF800308BF80120A28B130A8BF802309D
:102DE0008BF80320E27B02EB820303EBC2028BF839
:102DF0000420627C00E020E002EB820303EBC202CD
:102E00008BF8052000EB800202EBC00049494A4BD9
:102E10008BF8060094310C3B474AA1F5FE70FDF794
:102E200013FD08B984F803904048216A2838FDF75B
:102E3000FEFF0028F8D1E5706570A07800283FF407
:102E400011AF3868B0F5CE7F69D13078A071717854
:102E5000E17196F802C084F808C0F37863723279A1
:102E6000A2727179A173B1792173F17961732F49DC
:102E700094F804808C310968C1F83C8094F805808E
:102E8000C1F840804B632949143109684A632949D4
:102E90003C310968C1F838C000EE100A9FED2A8A5B
:102EA000DFED2A8AF8EE400A002211461F4880EE24
:102EB000880A20EE280ABCEEC00A10EE103AFEF78F
:102EC000B7F8E079002200EE100A10211748B8EE9A
:102ED000400AC0EE080A20EEA80ABCEEC00A10EEB6
:102EE000103AFEF7A5F8207B0D2831D000224021B2
:102EF0001348FEF7B8F9607B0D282BD05FF0000275
:102F00004FF400410F48FEF7AEF9A07B0D2823D007
:102F10005FF000024FF400710948FEF7A4F9386829
:102F2000A6281BD023E0000000740040FC00002015
:102F3000004001403C0200202C000020000802401C
:102F400000040240000002400000C84200F07F453B
:102F50000122CCE70122D3E70122DBE73078E072DF
:102F6000A62806D0002280210348FEF77CF9A57030
:102F700078E60122F7E700000008024000000000A8
:102F8000000000000102030406070809AC2F000836
:102F90000000002044000000002B0008F02F000873
:102FA00044000020CC060000102B000800000000A8
:102FB0000000000000000000000000000000000011
:102FC0000000000000000000000000000000000001
:102FD00000000000000000000000000000000000F1
:102FE0000100000010000000000000000024F400B8
:04000005080001C529
:00000001FF
